:100000000C94BA030C94D7030C94D7030C94A12539
:100010000C94D7030C94D7030C94D7030C94D703F8
:100020000C94D7030C94D7030C940C210C94C82087
:100030000C9409220C94D7030C94D7030C94D70387
:100040000C94D7030C94D7030C94D7030C94D703C8
:100050000C94D7030C94E5210C94D7030C94D7038C
:100060000C94D7030C94D7030C94D7030C94D703A8
:100070000C94D7030C94D7030C94D7030C94D70398
:100080000C94D7030C94D7030C94D7030C94D70388
:100090000C94D7030C94D7030C94D7030C94D70378
:1000A0000C94D7030C94D7030C94D7030102E07788
:1000B0000103E075000102E0770103E0680001023E
:1000C000E35D0103E3000102E35B0103E3000102DE
:1000D000E2600103E2000102E2600103E200167C3B
:1000E00014001A0008001500170000002B0004007F
:1000F0001600070009000A000000E1001D001B00B7
:100100000600190005000000E000E200447E457E84
:10011000E3002C00427E2A00130012000C0018009D
:100120001C000000280033000F000E000D000B0023
:100130000000E50038003700360010001100000014
:10014000507EE400E600457EE7002C00437E167CEE
:1001500014001A00090013000A0000002B0004001C
:1001600015001600170007000000E1001D001B002D
:100170000600190005000000E000E200447E457E14
:10018000E3002C00427E2A0033001C0018000F0000
:100190000D000000280012000C00080011000B00E8
:1001A0000000E50038003700360010000E000000A7
:1001B000507EE400E600457EE7002C00437E3500DB
:1001C0001E001F00200021002200000039004E7E8A
:1001D00049004A004B004A7E000001004F7E4C005F
:1001E0004D004E004C7E00000100010001000100A6
:1001F0000100010001000100270026002500240065
:1002000023000000340030002F0057002D004B7EEB
:1002100000000100310001002E002D024D7E000083
:1002200001000100010001008700010088000100B9
:1002300042004300440045000100000001003E0070
:100240003F00400041000100000001003A003B0077
:100250003C003D0001000000010001000100010020
:100260000100010001004B004A0001004C00490060
:10027000010000004E004D004F00520051005000A0
:100280000000010001000100010001000100000068
:100290000100010001000100010001000100017CDA
:1002A000407E417E1370010001000000010001004A
:1002B0000100010001000100000001000100010037
:1002C0000100010001000000010001000100010027
:1002D00001000100010020782178227832782E7800
:1002E0002F78000027782578237833782C78307899
:1002F00000002878267824782B782D783178000033
:10030000497E01000100010001000100010001001F
:1003100001000100010001000100000001000100D6
:1003200001000100010001000000010001000100C6
:1003300001000100010000000100010001000100B6
:1003400001000100010001000100010001000100A5
:100350000100000001000100AB00A900AA00AC00F0
:1003600000000100010001000100A800AE00000033
:100370000100010001000100010001000100000472
:100380007F3F1F643214643214783C1E1E140A0529
:100390000001010101010101010102020202020248
:1003A000020202030303030303030304040404041B
:1003B00004040505050505060606060607070707E2
:1003C0000708080808090909090A0A0A0B0B0B0C97
:1003D0000C0C0D0D0D0E0E0E0F0F0F101011111134
:1003E00012121313141415151616171718181919B5
:1003F0001A1A1B1B1C1D1D1E1E1F2020212222231A
:100400002424252626272829292A2B2C2D2D2E2F5A
:1004100030313232333435363738393A3B3C3D3E71
:100420003F404142434445464748494A4C4D4E4F60
:1004300050515354555658595A5B5D5E5F61626422
:10044000656668696B6C6D6F7072737577787A7BAF
:100450007D7E8082838587888A8C8E8F9193959606
:10046000989A9C9EA0A2A3A5A7A9ABADAFB1B3B526
:10047000B7BABCBEC0C2C4C6C9CBCDCFD1D4D6D802
:10048000DBDDDFE2E4E7E9EBEEF0F3F5F8FAFDFFA0
:10049000FFAA7F55402223252628292A2C2D2F30DC
:1004A00032333536383A3B3D3E4042434547494A70
:1004B0004C4E5051535557595A5C5E6062646668A1
:1004C000696B6D6F71737577797B7D7F81838587AC
:1004D000898A8C8E90929496989A9C9E9FA1A3A5AF
:1004E000A7A8AAACAEAFB1B3B4B6B8B9BBBCBEBFD7
:1004F000C1C2C3C5C6C7C9CACBCCCDCED0D1D2D25A
:10050000D3D4D5D6D7D7D8D9D9DADADBDBDBDCDC64
:10051000DCDCDCDDDDDDDDDCDCDCDCDCDBDBDBDA1C
:10052000DAD9D9D8D7D7D6D5D4D3D2D2D1D0CECD87
:10053000CCCBCAC9C7C6C5C3C2C1BFBEBCBBB9B894
:10054000B6B4B3B1AFAEACAAA8A7A5A3A19F9E9C19
:100550009A98969492908E8C8A89878583817F7DE4
:100560007B79777573716F6D6B6968666462605EC5
:100570005C5A5957555351504E4C4A49474543428E
:10058000403E3D3B3A3836353332302F2D2C2A2928
:10059000282625232205010980A101850319012AA6
:1005A000B700150126B700950175108100C0050C34
:1005B0000901A101850419012AA002150126A00242
:1005C000950175108100C005010906A10185060588
:1005D0000719E029E7150025019508750181020535
:1005E00007190029EF1500250195F0750181020515
:1005F0000819012905950575019102950175039169
:1006000001C005010906A101050719E029E7150048
:10061000250195087501810295017508810105077D
:10062000190029FF150026FF0095067508810005B1
:1006300008190129051500250195057501910295F7
:100640000175039101C009023B00020100A03209BB
:1006500004000001030101000921110100012244ED
:1006600000070581030800010904010001030000DF
:1006700000092111010001226D00070582032000FD
:100680000112010002000000086702AC050200012F
:100690000200011403480065006C006900780050F6
:1006A00000690063006F00000014035900750073B7
:1006B00000680061006B006F0062006F00000004C2
:1006C000030904000000000000000000000000001A
:1006D000000000000000000000000000000000001A
:1006E000000000000000007E0F00D4FFFFFFC700E5
:1006F00000007800000000000000002A2B28000005
:1007000000000000000000000000000000002900C0
:100710000000002C1E3420212224342627252E36CA
:100720002D3738271E1F2021222324252633333638
:100730002E37381F0405060708090A0B0C0D0E0F8B
:10074000101112131415161718191A1B1C1D2F310E
:1007500030232D350405060708090A0B0C0D0E0F72
:10076000101112131415161718191A1B1C1D2F31EE
:1007700030354C0011241FBECFEFDAE0DEBFCDBF15
:1007800011E0A0E0B1E0ECE2F1E502C005900D92CD
:10079000A43AB107D9F723E0A4EAB1E001C01D9261
:1007A000A434B207E1F70E9430220C9440280C9444
:1007B0000000482F20913E039091050357E0291334
:1007C00002C080E0089530E0529FF001539FF00D89
:1007D0001124EA5FFC4F8181681306C080814813B1
:1007E00003C085818111EECF2F5F3F4F2770E7CF88
:1007F000FC01AC014C5F5F4F8FEF91E321918227A9
:1008000028E030E087FF09C0880F8927215031098F
:10081000C9F7E417F50791F70895880FF7CFE8EDCA
:10082000F0E080818E7F80831092E2001092DA00E7
:100830001092E100A0EEB0E08C9181608C938081F9
:100840008F77808319BCA7EDB0E08C918E7F8C935D
:1008500080818F7E80831092D60208952091E400DB
:100860003091E50095E6A9012091EC00822F81707E
:1008700020FF06C08091E80080FF06C080E0089558
:100880002091E80022FD1AC08091FB02882389F0A4
:10089000853089F08091EB0085FD0FC02091E40048
:1008A0003091E50042175307F9F29150E1F684E0E8
:1008B000089582E0089583E0089581E0089580918D
:1008C000FD0287FF13C08091E80082FF06C080917F
:1008D000E8008B778093E80004C08091FB028111CF
:1008E000F2CF08958091FB028823D9F38091E8002C
:1008F00080FFF8CF8091E8008E77ECCF982F90930F
:10090000E900242F762F50E0891731F07091EC0028
:100910002091ED005091F00021FD07C09F5F9730BE
:1009200071F78093E90081E008953091EB003E7FFC
:100930003093EB003091ED003D7F3093ED0030912E
:10094000EB0031603093EB007093EC002093ED00EE
:100950005093F0002091EE0027FDE0CF80E0089555
:10096000B0E0A0E0E6EBF4E00C94C726C8EDD0E0E0
:1009700088818F7E8883E7EDF0E0808181608083CD
:1009800084E082BF81E08093D60288818E7F888355
:1009900002EE10E0F80110821092DA0081EEC82E0B
:1009A000D12CF601108288818F77888388818068B6
:1009B000888388818F7D888319BC1092FB021092F6
:1009C000FC021092FA021092F90290EEE92EF12C3C
:1009D000F70180818B7F808388818160888342E0FA
:1009E00060E080E00E947E04F60180818E7F80833B
:1009F000F801808181608083808188608083F70135
:100A000080818E7F8083888180618883CDB7DEB7C7
:100A1000E8E00C94E326FC01809103039091040329
:100A200086179707A0F06115710529F49091E800E9
:100A30009E779093E80090E06115710551F4911153
:100A400008C08091E80082FF34C080E00895BC01B6
:100A5000F2CF8091FB028823C1F18530C1F18091F2
:100A6000E80083FD30C08091E80082FDEACF8091EC
:100A7000E80080FFE1CF8091F3002091F200382F51
:100A80006115710519F02830310558F091E02830D2
:100A9000310509F090E02091E8002E772093E800DE
:100AA000CBCF81918093F100615071092F5F3F4F4F
:100AB000E7CF8091FB02882341F0853041F080919F
:100AC000E80083FFBECF81E0089582E0089583E0CF
:100AD0000895089508958091D80208959C014FB714
:100AE000F8948091D0029091D102A091D202B0915D
:100AF000D3024FBF821B930B08952FB7F8946091D8
:100B0000D0027091D1028091D2029091D3022FBF76
:100B100008952FB7F8948091D0029091D102A091BE
:100B2000D202B091D3022FBF089520913701222322
:100B3000C9F02091D40227FF15C0E62FE695E6956F
:100B4000E695EE31D8F4E80FF92FF11D677021E03A
:100B500030E001C0220F6A95EAF7209582812823B0
:100B600022830895FC01329608962191621303C0F6
:100B7000DF0111971C92E817F907B9F70895209142
:100B800037012223C1F02091D40227FF14C0E62FA1
:100B9000E695E695E695EE31F8F4E80FF92FF11DAC
:100BA000677021E030E001C0220F6A95EAF7828188
:100BB000822B82830895FC0132962FEF30E0419121
:100BC000641751F02F3F19F4411101C0232F3F5FEB
:100BD0003630A9F72F3F09F40895820F911D27FDA4
:100BE0009A95FC0162830895A3E0B0E0EAEFF5E096
:100BF0000C94CD262091CD023091CE0228173907D2
:100C0000A1F09093CE028093CD02E091CB02F091BF
:100C1000CC02309751F024E029839B838A8306809D
:100C2000F781E02DCE01019609952396E2E00C9420
:100C3000E926A3E0B0E0EFE1F6E00C94CD262091A8
:100C4000C9023091CA0228173907A1F09093CA024D
:100C50008093C902E091CB02F091CC02309751F021
:100C600023E029839B838A830680F781E02DCE01D0
:100C7000019609952396E2E00C94E926FA01811188
:100C800001C0FB0109950895E0E7F2E0118282813D
:100C90008460828308958091C102982F9E7F61F4C1
:100CA000817082608093C1028091C4028E3218F0FC
:100CB0008DE28093C40208958A34B0F38170886411
:100CC000F1CFAF92BF92DF92EF92FF920F931F93FB
:100CD000CF93DF93082F162FE901E42FF0E0E057C0
:100CE000FC4F611110C0E4915E2F4E2F4983E883C1
:100CF0005A83DF91CF911F910F91FF90EF90DF907A
:100D0000BF90AF900895E62EF12C4491D42EE42F9D
:100D1000F0E026E0829FC00111242FEF30E0B901FE
:100D20000E940227802F90E0880F991F55E5569F5B
:100D3000D001579FB00D11248A1B9B0B982F990F40
:100D4000890F5901AE18BF08AE9ED001AF9EB00DFD
:100D5000BE9EB00D11245B2F189F80011124012F1E
:100D600011275901A01AB10AAE9E8001AF9E100D45
:100D7000BE9E100D11245901A81AB108AE9CC001E5
:100D8000AF9C900DBE9C900D1124892F9927281B94
:100D9000390B2E9FC0012F9F900D3E9F900D112467
:100DA000E92F62307105A1F050F46115710509F465
:100DB0009DCF6130710581F0EB2F512F97CF6430BB
:100DC000710569F080F06630710509F48FCFF4CFBA
:100DD000E42F4B2F592F8ACFE42F412F87CFEB2FB2
:100DE000542F492F83CF4B2F5D2DE12F7FCF80E0F4
:100DF0000895F894E82FE295EF70F0E031A1282FE4
:100E00002F7081E090E001C0880F2A95EAF7982FB3
:100E10009095932391A392A1892B82A3789408950E
:100E20009091D40292FF10C041E0282F2471243009
:100E300009F040E031E0282F2871283009F030E037
:100E4000431711F02CE0822793FF10C041E0282FB8
:100E50002471243109F040E031E0282F2871283135
:100E600009F030E0431711F02CE082273091D502D1
:100E700030FF10C051E0282F2171213009F050E0DF
:100E800041E0282F2871283009F040E0541711F074
:100E900029E0822731FF10C041E0282F2171213144
:100EA00009F040E031E0282F2871283109F030E0C6
:100EB000431711F029E0822794FD877E0895823838
:100EC0009105B9F1B0F48133910509F47DC048F47E
:100ED0008932910509F46DC08A32910509F47BC00D
:100EE00008958533910509F45FC08933910509F1AF
:100EF0000895833E9105D9F138F4803E910529F19A
:100F0000823E910579F10895863E9105D9F1873E9B
:100F1000910509F43EC0843E910541F52091D5022A
:100F200021FF24C08091D40284FD19C087EE90E097
:100F300008952091D402237009F05AC02091D5025F
:100F400023FF14C089E290E008952091D40220FD8F
:100F500038C03091D50230FF09C024FF43C090E073
:100F600080E008952091D40222FDF7CF08952091CA
:100F7000D40222FD3AC03091D50230FD39C024FFA1
:100F8000F5CFEDCF2091D40223FFF0CF24FDE7CFA2
:100F9000CDCF2091D40223FD2EC03091D50231FF58
:100FA000EECF84EE90E008952091D40225FFDECFAD
:100FB000C9CF2091D40225FD21C02091D50223FF65
:100FC000D5CF89E390E0D2CF2091D40226FFCECFB7
:100FD0008AE290E008952091D40226FFC7CF81E3F2
:100FE00090E0089583EE90E0089582EE90E00895F9
:100FF00080EE90E0089586EE90E0089585E390E01D
:101000000895972F7830B8F46730A8F48630B0F49C
:1010100070E027E0929F600D711D1124FB0198E3A1
:10102000899FE00DF11D1124EE0FFF1FE252FF4FCB
:1010300085919491089580E090E0089581E0FCCF3F
:101040001F93CF93DF930E945F07EC01C11580E5EA
:10105000D807F0F5C11580E4D80708F09CC0C03E61
:10106000D10520F5CD3CD10508F082C0C83AD105A4
:1010700078F4C53AD10508F073C0C130D10519F133
:10108000209709F1C430D105F0F4D0E0C0E01BC0D6
:10109000C33CD105D0F7C85AD0E0CC0FDD1FC55CEA
:1010A000DE4F0990D881C02DD4640DC0C11580E2F7
:1010B000D80708F0D1C0C11581E0D80708F05AC0A0
:1010C000C83ED10510F7CE01DF91CF911F91089551
:1010D000C03682E5D80718F5C03482E5D80708F095
:1010E0006BC0C03282E5D80708F05FC0C11582E549
:1010F000D80708F497C02C2F2695269580E2289FC4
:10110000900111248C2F8370C1E0D0E002C0CC0F7D
:10111000DD1F8A95E2F7C22BD32BDD68D4CFC03A0E
:1011200082E5D80760F4C03882E5D80708F459C0D2
:10113000CF71D0E0DC2FCC27C46FD06AC4CFC03CC5
:1011400082E5D80708F462C0C03E82E5D80708F0FF
:101150009CCFDC2FCC27CC27DF71C06FD06AB3CFF8
:10116000C55AD0E0C85CDE4FC881D0E0D064ABCFB8
:10117000D065A9CF8D2F0E941007182FCE01992777
:101180000E945F07C12FD0E0DC2FCC27CC27DF7176
:10119000C82BD92B98CFCE0199270E945F07CC2767
:1011A000DF70C82BD92BD06A8ECFCF71D0E0DC2F67
:1011B000CC27C16FD06A87CF2C2F26952695277014
:1011C00080E2289F900111248C2F8370C1E0D0E031
:1011D00002C0CC0FDD1F8A95E2F7C22BD32BDC684F
:1011E00072CF2C2F26952695277080E2289F90019C
:1011F00011248C2F8370C1E0D0E002C0CC0FDD1F22
:101200008A95E2F7C22BD32BDA685DCF8C2F8F71D2
:101210000E941007C82FD0E0DC2FCC27CC27DF712D
:10122000D06251CF8C2F8F710E94100755E0D69558
:10123000C7955A95E1F7CF70D0E0DC2FCC27282F47
:1012400030E084FF05C044E0220F331F4A95E1F7E8
:10125000C22BD32BD06937CF8D2F8F710E941007EF
:10126000182FCE0199270E945F07C12FD0E0DC2FF5
:10127000CC27CC27DF71C82BD92BD2CF809590916A
:101280000F02982390930F02089580913E0390914E
:101290000503981301C008958F5F8770FACFB0E0FF
:1012A000A0E0E5E5F9E00C94C6267C01009142033C
:1012B000109143038091100290911102082B192B79
:1012C000CFE0D0E0CC24C394D12CBC2EC6010C2E90
:1012D00002C0880F991F0A94E2F780239123892B7B
:1012E00049F4219790F7B12C8B2DCDB7DEB7E9E00B
:1012F0000C94E226B7018C2F0E9401080E9420085E
:10130000019779F3F1CFCF93DF93EC010E944F095E
:10131000BE010E9401080E942008DF91CF9108952C
:10132000983078F5873068F5E82FF0E087E0989FEF
:10133000E00DF11D11249E2F977083E0F695E7953F
:101340008A95E1F7EE0FFF1FEE0FFF1FE753FE4FE9
:1013500050E040E080E0219130E0092E02C0369557
:1013600027950A94E2F721703327042E01C0220F3B
:101370000A94EAF7822B4F5F5F4F4430510559F7CB
:10138000089580E00895983098F5873088F5E82F23
:10139000F0E087E0989FE00DF11D11248E2F8770FB
:1013A00041E001C0440F8A95EAF783E0F695E7959E
:1013B0008A95E1F7EE0FFF1FEE0FFF1FE753FE4F79
:1013C00030E020E070E05191DF011197CB01022E57
:1013D00002C0969587950A94E2F7817081958527DA
:1013E000842385278C932F5F3F4F2430310559F795
:1013F00008959093430380934203089521E030E0E1
:1014000002C0220F331F8A95E2F720953095809114
:10141000420390914303822393230E94F909089584
:101420009091EC01809589238093EC01282F2770FF
:1014300069F4891759F09091D50292FF07C08695FB
:10144000869586950E94FE091092EC01089521E090
:1014500030E002C0220F331F8A95E2F780914203E9
:1014600090914303822B932B0E94F9090895809158
:10147000420390914303009741F082FF06C083FF2F
:1014800004C084E00E94270A089584E00E94FE09B7
:10149000089590931102809310020895FC01248115
:1014A0002223C1F0808191810E94830992959F70CF
:1014B000963091F058F4925F9F70923058F4803FCC
:1014C00019F030F4883E30F481E008959A5FF4CF4B
:1014D000843FD1F380E00895883EB0F3813FD1F797
:1014E000F3CFA6E0B0E0E7E7FAE00C94CC2649831E
:1014F0005A8349815A819923A1F0222391F0CA018C
:101500000E944F09182F682F89819A810E94C30970
:1015100069817A81812F0E9401082696E3E00C946C
:10152000E826CA010E949009182FF2CF0F931F934B
:10153000CF93DF938B01EA019091FB02943061F528
:101540008093E9008FEF9091E800815095FD06C0EF
:1015500095ED9A95F1F700008111F5CF8091E800A3
:1015600085FF1AC00E942E04811111C08091E800ED
:1015700085FD06C08091E8008E778093E800F2CF69
:10158000F80181918F018093F100219779F7809183
:10159000E8008E778093E800DF91CF911F910F9143
:1015A000089543E050E0BC0182E00E94960A08954D
:1015B000CF93DF93EC0180913701811111C048E096
:1015C00050E0BE0181E00E94960A80E2FE01A9ED92
:1015D000B2E001900D928A95E1F7DF91CF910895E5
:1015E0008091D40287FF05C040E282E050E0BE0156
:1015F000EACF48E081E0FACF8091C10280FD0AC0C5
:10160000E6E7F2E0118210821282339652E0E13C6A
:10161000F507C1F7539A3BB1377F2BB128604FB71D
:10162000F89486E792E0FC015191CF0168E02BB974
:10163000000000C057FF3BB9550F000000C000C0BC
:1016400000C03BB900C06A9591F7F2E0813C9F076A
:1016500051F74FBF8FE594E00197F1F700C000000C
:101660000895EF92FF920F931F93CF93DF938C0116
:10167000C6E7D2E0F12CE12CF80194816091C3021D
:101680008091C202FCE0EF16F10404F5992301F108
:101690004091C4024E3208F04DE29E010E94610664
:1016A0002FEFE21AF20A239689E1E816F10421F7F6
:1016B0000E94FC0AF801848190E0019681709927CC
:1016C0008483CDB7DEB7E6E00C94E526992301F3D9
:1016D0009E0140E0E3CFB0E0A0E0E1E7FBE00C9446
:1016E000C326EC014C81042F10E09801D8010E9420
:1016F0005A279B01AC010E9470274B015C01E0E27C
:10170000F0E0E01BF10BA5E5B0E0AC019B010E940D
:1017100070276B017C019F01DF010E9452279B0112
:10172000AC010E947B279B01AC01280D391D4A1D8D
:101730005B1DC701B6010E942A27F22E822F90E07E
:1017400039E23F15B0F143E0249F90011124359513
:101750002795122F109596E7C92E92E0D92E00E01A
:1017600085E5E82EEF188E2D01FD8F2D412F1E32BD
:1017700008F04DE296016091C3020E9461060F5F7E
:1017800053E0C50ED11C093171F70E94FC0A9C81FF
:1017900081E0992319F0903219F48FEF809336018C
:1017A00080913601890F8C83CDB7DEB7ECE00C94C5
:1017B000DF2625E530E0A901481B590BCA019A0133
:1017C000220F331F280F391F37FFC1CF2F5F3F4F25
:1017D000BECFEF92FF920F931F93CF93DF937C01C5
:1017E000FC018481811109C081E08483109274021C
:1017F00092E09093350180933401C6E7D2E0FE0178
:10180000118210821282339682E0E13CF807C1F720
:1018100010E000E080917402082E000C990B08176C
:101820001907C4F180913501082E000C990B80171F
:10183000910784F14091C4024E3208F04DE29E01BE
:101840006091C3028091C2020E9461060F5F1F4F28
:10185000239609311105F1F60E94FC0A80913401AA
:1018600090917402980F9093740220913501280F83
:1018700020933501121614F498313CF08195809331
:101880003401813011F4F7011482CDB7DEB7E6E000
:101890000C94E526198218821A82D8CFB0E0A0E015
:1018A000E4E5FCE00C94C426EC018A81BB24BA94E4
:1018B00080FD02C0BB24B3948C81811108C081E0FB
:1018C000B81259C088E18093730281E08C8326E7C7
:1018D000E22E22E0F22E10E000E039E1932EF70133
:1018E00011821082128294E0C92ED12CA12C8091F9
:1018F00073028A0D8A310CF441C0692D0E94F426CE
:10190000892F082E000C990B80179107A9F480915C
:10191000C4028C9DA0018D9D500D112455954795B5
:10192000559547954E3208F04DE297016091C302FC
:101930008091C2020E946106AB0CF1E0CF1AD1087F
:10194000B1F60F5F1F4F83E0E80EF11C093111055E
:1019500031F60E94FC0A8091730291E0B91217C01F
:10196000811110C088E1809373021C82CDB7DEB76D
:10197000EBE00C94E02610927302A7CF87FFC1CF53
:10198000875EBFCF815080937302BC82EFCF90E01F
:101990000196B8010E941627809373028C83E6CFCC
:1019A000EF92FF921F93CF93DF93EC0186E7E82E2F
:1019B00082E0F82E10E04091C4024E3208F04DE271
:1019C0008C8197016091C302810F0E946106165FAE
:1019D00083E0E80EF11C1A3F71F70E94FC0A9A811D
:1019E0008C8190FF08C08F5F8C83DF91CF911F9116
:1019F000FF90EF9008958150F7CF9091C10290FF32
:101A00000CC0E6E7F2E0818360834283339692E084
:101A1000E13CF907C1F70E94FC0A0895A3E0B0E099
:101A2000E4E1FDE00C94CB268C01809175028111DC
:101A30000AC09E012F5F3F4F4DE26FEF0E9461068B
:101A40008A8180937502F8016481613069F0809128
:101A5000750240E0662361F040E0623011F440918D
:101A6000750280E060E004C06091750240E080E0B3
:101A70000E94FD0CF801848190E0019663E070E023
:101A80000E94162784832396E4E00C94E726A3E0C3
:101A9000B0E0EDE4FDE00C94CD269091C10290FF02
:101AA0000DC04E3208F04DE29E012F5F3F4F0E9465
:101AB00061064B8169818A810E94FD0C2396E2E0D8
:101AC0000C94E926CF93DF93EC01E1ECF2E0438143
:101AD00062818C810E94470D8C818F5F8C83DF91A6
:101AE000CF910895CF93DF93EC01EC81F0E0EB56BA
:101AF000FB4F4491E1ECF2E0628181810E94470D4D
:101B00008C818F5F8C83DF91CF910895B0E0A0E04E
:101B1000ECE8FDE00C94C5267C015B016A01809134
:101B2000430201E010E08A3010F40AE010E0C1E066
:101B3000D0E0B501C701F6010995811104C02196D5
:101B40000C171D072CF4CDB7DEB7EAE00C94E126A4
:101B5000CC9F9001CD9F300D300D112490E080E09E
:101B600045E34A95F1F70000019682179307C1F704
:101B7000E0CF80911E02811110C08091D800806159
:101B80008093D8008AE18A95F1F700C08091D9004E
:101B900080FF0AC081E080931E0281E090911E02C6
:101BA000913009F080E0089582E080931E020E9447
:101BB0000F041092FB02F1CF0E94B90D882359F057
:101BC000E091CB02F091CC02309729F00190F081A6
:101BD000E02D0995089580E008950F931F930E94CA
:101BE000B90D882329F00E947D051F910F9108955A
:101BF0000E947D0500914402109145022091460209
:101C000030914702600F711F821F931FEECF0E9419
:101C1000B90D882319F00E94890508950E94ED0DE1
:101C2000CB0108956091C102669570E04BE050E0F1
:101C300089E291E00E941D28892B19F481E08093AC
:101C400071020E94070E90936B0280936A0280914A
:101C500072028460809372020895B0E0A0E0E3E332
:101C6000FEE00C94C32649015A016B017C010E94DD
:101C70004B068401A4016A2D7B2D88E090E00E9430
:101C8000FB2794014A2D5B2DB601C70100E20E949B
:101C90009E27622F84E290E00E94E927CDB7DEB74D
:101CA000ECE00C94DF26A3E0B0E0E9E5FEE00C9464
:101CB000BE26E82E562EF42E422E9091C10290FFA1
:101CC00045C02091C202281308C08091C302861328
:101CD00004C08091C402841729F08091720282604E
:101CE00080937202E92FE695AE2FB0E0A258BE4F66
:101CF0008C91809370029E7F923061F54F2D8DE222
:101D00008F1508F44DE29E012F5F3F4F652D8E2DFC
:101D10000E9461064B8169818A810E94FD0CE092DC
:101D2000C2025092C302F092C402442079F0209182
:101D3000C1026091C5027091C6023E2D452D5F2DF6
:101D40008091C7029091C8020E942D0E2396E1E176
:101D50000C94DA26823019F4F090C402E0CF863079
:101D6000D1F18930C1F18931D1F6E9519E2F9170BD
:101D7000392EE695F0E0E057FB4FE4910E2F10E08E
:101D800086E7C82E82E0D82E91EC892E92E0992E1B
:101D9000B12CA12C29E1622E712CC501B3010E9446
:101DA00002278E2D311015C0860F4F2D9DE29F15F5
:101DB00008F44DE29601652D0E946106A00EB11E49
:101DC00083E0C80ED11C8C149D0439F70E94FC0AD4
:101DD000A6CF861BEACFE22EA2CFE1ECF2E0438150
:101DE00024E0421B08F440E021E0628181810E94EE
:101DF000530E0895E1ECF2E0438124E0420F08F431
:101E00004FEF21E0628181810E94530E0895E1EC41
:101E1000F2E0628121E1621B08F460E021E043818D
:101E200081810E94530E0895E1ECF2E0628121E18C
:101E3000620F08F46FEF21E0438181810E94530E0D
:101E40000895E1ECF2E0818121E0438162818A50D2
:101E50000E94530E0895E1ECF2E0818121E043817C
:101E60006281865F0E94530E08958091C502882387
:101E700019F081508093C5022091C1023091C202B5
:101E80004091C3025091C4026091C5027091C60294
:101E90008091C7029091C8020E942D0E08958091F2
:101EA000C502833018F48F5F8093C5022091C10270
:101EB0003091C2024091C3025091C4026091C502A8
:101EC0007091C6028091C7029091C8020E942D0EA7
:101ED00008959091C10290FF39C09170811137C06F
:101EE00092609093C102809172028160809372022D
:101EF000662391F02091C1023091C2024091C30249
:101F00005091C4026091C5027091C6028091C702CF
:101F10009091C8020E942D0E6091C102669570E0FA
:101F20004BE050E089E291E00E941D28892BB1F03E
:101F30000E94440681E080936D0220E04091C4023B
:101F40006091C3028091C2020E94530E08958532AF
:101F500010F09864C6CF880F982BC3CF0E94120E42
:101F6000E9CF61E00E94690F08958091C1028695D2
:101F7000815009F484E261E00E94690F0895809124
:101F8000C10286958F5F853208F081E061E00E9492
:101F9000690F08959091C10290FF08C09695981717
:101FA00028F0961718F40E94BF0F08950E94B10FF1
:101FB0000895E1ECF2E083E0808311828FEF828369
:101FC0008DE283831482A0E7B2E012968C9112977F
:101FD000836012968C93758123E030E04FEF5DE2D1
:101FE00060E0868197810E942D0E0895A4E0B0E004
:101FF000ECEFFFE00C94CC26409127025091280290
:102000006091290270912A022FB7F8948091D00232
:102010009091D102A091D202B091D3022FBF841B24
:10202000950BA60BB70B11E084369105A105B10500
:1020300070F10E94ED0D6E5F7F4F8F4F9F4F698350
:102040007A838B839C838091110190911201855D2D
:102050009D4F4091100150E04530510510F044E093
:1020600050E0BE016F5F7F4F0E94372882E090E012
:102070000E944726182F882351F00E947D05609307
:102080002702709328028093290290932A02812FBD
:102090002496E3E00C94E826ABE0B0E0E2E5F0E162
:1020A0000C94CD2688E0E1ECF2E0DE01119601907F
:1020B0000D928A95E1F78091700290917102A09142
:1020C000720289879A87AB872B8540913F02509196
:1020D000400260914102709142023FB7F8948091B2
:1020E000D0029091D102A091D202B091D3023FBF11
:1020F000841B950BA60BB70B84369105A105B10582
:1021000010F4222319F18091190190911A01855D33
:102110009D4F4091180150E04C30510510F04BE0BC
:1021200050E0BE016F5F7F4F0E94372883E090E050
:102130000E944726882369F00E947D0560933F0234
:102140007093400280934102909342021092720277
:1021500081E02B96E2E00C94E926EF92FF921F9328
:10216000CF93DF9300D000D00F92CDB7DEB77B01C5
:1021700090E080E00E944726182F882309F487C04A
:102180004091030150E04115510511F041E050E04C
:102190006091040170910501655D7D4FCE0105964A
:1021A0000E94372840912302509124026091250219
:1021B000709126022FB7F8948091D0029091D102AD
:1021C000A091D202B091D3022FBF841B950BA60B16
:1021D000B70B84369105A105B10540F48CE292E07D
:1021E0000E94F8039D81891709F451C081E090E0B5
:1021F0000E94472681111AC010E080911F02909121
:102200002002A0912102B0912202F70180839183E4
:10221000A283B383812F0F900F900F900F900F9098
:10222000DF91CF911F91FF90EF90089540910B01A6
:1022300050E04530510510F044E050E060910C0151
:1022400070910D01655D7D4FCE0101960E9437288A
:102250008CE292E00E94F8039D818913CDCF0E9409
:102260007D0560932302709324028093250290934E
:10227000260289819A81AB81BC8180931F02909351
:102280002002A0932102B093220211E0B6CF8091E8
:102290002C0290912D02A0912E02B0912F028983E1
:1022A0009A83AB83BC831111E4CFA7CFA3E1B0E045
:1022B000ECE5F1E10C94C2268E01045F1F4F88E02B
:1022C000D8011D928A95E9F783E7C82E81E0D82EC0
:1022D000F12CE12CAA24A394B12C2EE7822E21E02C
:1022E000922EF60181916F018F3F09F442C0F8945C
:1022F000E82FE295EF70F0E021A18F70A50102C0F8
:10230000440F551F8A95E2F7CA01922F982B91A38B
:1023100092A18095892382A3789400C0E7E7F1E039
:10232000712C31E021912F3F09F46BC0A22FA295AF
:10233000AF70B0E090968C9190E02F7002C09595B0
:1023400087952A95E2F780FD5CC0832F782A330FAA
:102350008E169F0639F7F601319780818F3F11F075
:102360000E94F90650EA5A95F1F7F801EE0DFF1DAB
:1023700070828FEFE81AF80AA4E0EA16F10409F077
:10238000B0CF48E050E0B8018AE492E00E942A28E9
:10239000009741F028E0F801AAE4B2E001900D9224
:1023A0002A95E1F700915302892B69F181E080932E
:1023B00016020E9489059093150280931402809161
:1023C0001402909115020E946E05059700F110E02D
:1023D0000B5A1D4F44E050E06AE472E0C8010E94CD
:1023E0002A28F12C892B51F084E0EAE4F2E0D801AC
:1023F00001900D928A95E1F7FF24F3941092160252
:1024000007C080E0A3CF809116028111D8CFF12CB4
:102410000E94B90DE82EE0915302882309F47DC093
:1024200019821A821B821C820E2F10E00B5A1D4F3C
:10243000809143028A30D8F54DEA50E1BE016F5FCA
:102440007F4FC8010E94860D882309F455C046EFCE
:102450005FE0BE016F5F7F4FC8010E94860D882339
:1024600009F44AC04CE450E1BE016F5F7F4FC801E0
:102470000E94860D882309F43FC010924302809188
:10248000520290E044E050E0BE016F5F7F4F8B5AF4
:102490009D4F0E942A2821E020931D02892BF1F4F0
:1024A000E12C8E2D8F296396EDE00C94DE26809131
:1024B0001702909118020E946E05843F914008F027
:1024C000BBCF80911D02882359F384E0FE01319631
:1024D000DF011D928A95E9F710921D02E0915202E8
:1024E000F0E0EB5AFD4F89819A81AB81BC818083FA
:1024F0009183A283B383D5CF809143028F3F31F084
:102500008F5F809343028A3008F4B9CF0E94890517
:102510009093180280931702D4CFF0E0EB5AFD4F4E
:1025200084E0ACE2B2E001900D928A95E1F78CE292
:1025300092E00E94F80380932B02809030029090EA
:102540003102A0903202B090330280911902909132
:102550001A02A0911B02B0911C0288169906AA06C5
:10256000BB06D1F08092190290921A02A0921B022F
:10257000B0921C020E94B90D81110EC00E947D050F
:10258000861A970AA80AB90A8092440290924502D4
:10259000A0924602B09247028BE0E4E3F2E0DE0153
:1025A000119601900D928A95E1F7809134028695FB
:1025B000D0903502C0903602B090370200913D02B3
:1025C00010913E0210923E02112309F46ACF10FFCF
:1025D0000BC029819091C10220FF1AC09160909395
:1025E000C10260E00E94690F11FF06C020E04B2D80
:1025F0006C2D8D2D0E94530E12FF04C00023A9F0F4
:102600000E94120E13FF4DCF81E080936D0249CFDF
:102610009E7F9093C1020E94440680917202816065
:10262000809372020E94FC0ADFCF0E944406EACF28
:1026300080910F0290910E02892B8093A6019091B8
:102640000D029923A1F0892B8093A6018091370177
:102650008823E1F18091D40287FF38C08EE1E8EA57
:10266000F1E090E08150A0F5911110920D0240E24E
:1026700050E06DEE71E086EA91E00E942A28892BF5
:1026800021F180E2E6EAF1E0ADEEB1E001900D92D9
:102690008A95E1F7E091CB02F091CC023097A9F056
:1026A00080913701882359F08091D40287FF07C0B9
:1026B0008091A6018093A70186E08093A601028005
:1026C000F381E02D86EA91E00995089586E0C7CF71
:1026D0002191222339F29F5FC5CF10920F02809182
:1026E0003701E8EAF1E08823B1F08091D40287FF56
:1026F00012C08EE1DF011D928A95E9F790E080E03B
:102700000E94190690E080E00E94F40510920E02EB
:102710000E941813089586E0EDCFAAE2B0E0E3E945
:10272000F3E10C94CC268DEF92E02091F100FC01B6
:102730002193CF01F3E085309F07B9F78091FE0226
:10274000833009F470C0B8F4813009F447C0823096
:1027500009F4B1C08091E80083FF7EC28091FD0240
:102760009091FE029A3008F077C2E92FF0E0EE5B1C
:10277000F74D0C944C278A3009F48CC08B3009F447
:102780006FC0893039F78091FD02813219F780914D
:102790000103909102030297E8F68091E800877F99
:1027A0008093E8008091E80082FF38C09091F300A8
:1027B0008091F200029731F48091F100813011F0A4
:1027C000863021F48091F1008093D8028091E80056
:1027D0008B778093E8000E945F04BCCF8091FD025C
:1027E000813A09F0B7CF8091E800877F8093E800B5
:1027F0008091010390910203892B61F460E289EDDD
:1028000092E070E00E940B058091E8008B77809346
:10281000E800A0CF60E090E080E0F3CF8091FB0281
:102820008111C0CF97CF8091FD02813A09F092CFFC
:102830008091010390910203892B09F08BCF809145
:10284000E800877F8093E8008091E80080FFFCCF5C
:10285000809137018093F1008091E8008E77B9CFA5
:102860008091FD02813209F075CF80910103909132
:102870000203892B09F06ECF8091E800877F809357
:10288000E8000E945F048091FF02809337010E945C
:102890006D1360CF8091FD02813209F05BCF809192
:1028A000E800877F8093E8000E945F048091000326
:1028B0008093D7024FCF8091FD02813A09F04ACF31
:1028C0008091E800877F8093E8008091E80080FF96
:1028D000FCCF8091D702BECF803899F0823809F0C2
:1028E000BBC1809101038F70873008F0B5C1809320
:1028F000E9008091EB0085FB882780F91092E900C0
:1029000006C08091F9029091FA0291118260909133
:10291000E800977F9093E8008093F1001092F10017
:102920008091E8008E7794C1882309F482C18230B7
:1029300009F092C18091FF02811185C1809101034C
:102940008F702FEF280F263008F086C18093E900A2
:102950002091EB0020FF77C1933031F48091EB00A0
:1029600080628093EB006FC19091EB009061909337
:10297000EB0021E030E001C0220F8A95EAF72093B6
:10298000EA001092EA008091EB008860EACF8111A2
:1029900063C11091FF021F778091E3008078812B43
:1029A0008093E3008091E800877F8093E8000E9495
:1029B0005F048091E80080FFFCCF8091E300806895
:1029C0008093E30082E0111183E08093FB0244C115
:1029D0008058823008F040C18091FF02909100033E
:1029E0008C3D23E09207A1F583E08A838AE2898304
:1029F0004FB7F894DE01139620E03EE051E2E32F5A
:102A0000F0E050935700E49120FF03C0E295EF708F
:102A10003F5FEF708E2F90E0EA30C0F0C7968D9345
:102A20009D932F5F243159F74FBF8091E800877F36
:102A30008093E8006AE270E0CE0101960E940B05E7
:102A40008091E8008B778093E80006C1C096E7CFBD
:102A50004091010350910203292F33272330310580
:102A600009F444C078F52130310509F46FC08BE3D7
:102A700090E0E6E4F6E02230310509F0EDC0209167
:102A8000E800277F2093E80020910303309104039E
:102A90008217930708F49C0140E02115310509F0E5
:102AA00064C0411162C08091E80082FDC9CF80916D
:102AB000FB02882329F2853019F28091E80083FF18
:102AC000F2CFBECF21323105A9F12232310509F012
:102AD000C3C04115510509F443C04130510509F007
:102AE000BBC08DE690E0E5E9F5E0C9CF99278130DC
:102AF0009105C1F0009759F0029709F0ADC0E3E9E4
:102B0000F6E0E4918E2F90E0E3E9F6E007C0EFEB0A
:102B1000F6E0E4918E2F90E0EFEBF6E0009709F4F9
:102B20009BC0ADCFE9EAF6E0E4918E2F90E0E9EAB0
:102B3000F6E0F4CF4115510571F04130510509F02F
:102B40008BC089E090E0E1E7F6E099CF82E190E088
:102B5000E1E8F6E094CF89E090E0E8E5F6E08FCF99
:102B600084E490E0E2E0F6E08ACF8091FB028823E3
:102B700009F466CF853009F463CF8091E80083FDC6
:102B80005FCF8091E80082FD8ECF8091E80080FFCA
:102B900084CF9091F3008091F2002115310519F056
:102BA0008830910550F041E0089709F040E08091AD
:102BB000E8008E778093E80070CF44914093F10055
:102BC0003196215031090196E8CF803809F044C090
:102BD0008091E800877F8093E8008091FC028093D9
:102BE000F1009ECE811138C01091FF021230A0F585
:102BF0008091E800877F8093E8001093FC020E9498
:102C00005F04112311F084E005C08091E30087FD8B
:102C1000FACF81E08093FB0242E061EC81E00E9408
:102C20007E0442E261EC82E00E947E048091FB021D
:102C300013C08091FF02813079F481E0933009F074
:102C400080E08093FA021092E9008091E800877F8B
:102C50008093E8000E945F048091E80083FF0AC02F
:102C60008091E800877F8093E8008091EB0080628C
:102C70008093EB00AA96E3E00C94E8260E946D1383
:102C80002FEF84E39CE0215080409040E1F700C0AA
:102C9000000088E19AE00FB6F894A8958093600050
:102CA0000FBE90936000FFCF882321F00E943E0961
:102CB0000E9418130895882339F090910F02982BE1
:102CC00090930F020E9418130895882351F19CEFEE
:102CD000980F913A40F4682F86EA91E00E9495059A
:102CE0000E941813089590E2980F983050F487705E
:102CF00091E001C0990F8A95EAF7892F0E943E0959
:102D0000EFCF9BE5980F933028F490E080E00E948D
:102D100019060895885A8B3120F490E080E00E94D3
:102D2000F4050895CF93C82F8823D9F18CEF8C0F29
:102D3000813AC8F580913701882311F18091D4023E
:102D400087FF1EC0EC2FE695E695E695F0E0EA5584
:102D5000FE4F828190E04C2F477021E030E002C0AE
:102D6000220F331F4A95E2F782239323892B91F098
:102D70006C2F86EA91E00E9495050E9418130AC004
:102D8000E8EAF1E08EEA91E02191C21789F38E170B
:102D90009F07D1F76C2F86EA91E00E94BF050E9441
:102DA0001813CF91089580E28C0F883068F4C770B3
:102DB00021E030E001C0220FCA95EAF780910F02AE
:102DC000822B80930F02EBCFEBE5EC0FE33040F466
:102DD000F0E0E85CFE4F808190E00E941906E1CFB0
:102DE000C85ACB31F0F6EC2FF0E0EE0FFF1FE55C98
:102DF000FE4F808191810E94F405D3CF1F93CF9322
:102E0000DF93182FD0E0C0E0893311F4C0E5D0E0A3
:102E1000812F0E949216209739F4812F0E94651607
:102E2000DF91CF911F9108958FE99FE00197F1F70E
:102E300000C000002197EFCFB0E0A0E0E2E2F7E1B0
:102E40000C94C526EC018AE0A82EFE0124912223D1
:102E500009F497C0213009F03EC031968491813049
:102E600031F42296FE0184910E94FE1607C0823042
:102E700039F42296FE0184910E9492162196E5CFA4
:102E8000833031F42296FE0184910E946516F6CFBC
:102E9000843009F074C02296FE01249190E080E015
:102EA000FE0131962053330B2A30310548F001974B
:102EB00028F3EFE9FFE03197F1F700C00000F7CF0A
:102EC000A89EA001A99E500D1124C901840F951F31
:102ED0002491EF01E5CFE22FF0E0ED50F94FB490EF
:102EE000822F86958695869590E0FC01ED51F94FED
:102EF000E4902770F12C022E02C0F594E7940A9416
:102F0000E2F731E0E322FF24FC01ED52F94FC490D7
:102F1000D12C022E02C0D594C7940A94E2F7E1E0C6
:102F2000CE22DD24FC01ED53F94F049110E002C0E4
:102F3000159507952A95E2F701701127E114F10420
:102F400019F081EE0E949216C114D10419F086EE98
:102F50000E9492168B2D0E94FE16C114D10419F006
:102F600086EE0E946516E114F10419F081EE0E94CC
:102F700065160115110509F481CF8CE275CFEF01BB
:102F80007DCFCDB7DEB7EAE00C94E1260F931F9317
:102F9000CF93DF93C62FD42F022FFC018581882386
:102FA000A9F0609341030E948905909340038093A8
:102FB0003F03C77081E001C0880FCA95EAF70E94FD
:102FC0005B16DF91CF911F910F910895809141037E
:102FD000681332C080913F03909140030E946E05B8
:102FE0008436910548F510E21D0FCD17B9F080E247
:102FF0008C0F883040F4C77081E001C0880FCA95FB
:10300000EAF70E945416183048F481E09D2F97701B
:1030100001C0880F9A95EAF70E945B16802F0E94E4
:10302000FE16183070F6D77081E001C0880FDA956F
:10303000EAF70E945416C5CFC77081E001C0880F1F
:10304000CA95EAF7F6CFA8E0B0E0E9E2F8E10C941F
:10305000CD2666EE7EEF90E080E00E94072860E0DB
:1030600082E090E00E94E92760E083E090E00E9427
:10307000E927109211021092100260E074E184E0DE
:1030800090E00E94072860E086E090E00E94E92737
:103090006FEF87E090E00E94E92740E050E0BA013E
:1030A00088E090E00E94FB2760E084E290E00E94CC
:1030B000E92760E087E190E00E94E92760E08CE08A
:1030C00090E00E94E92760E08DE090E00E94E9270F
:1030D00019821A821B821C821D821E821F82188600
:1030E00048E050E068E170E0CE0101960E94D927E7
:1030F00040E050E0BA0180E290E00E94FB2740E00F
:1031000050E0BA018FE090E00E94FB2740E050E0E1
:10311000BA0183E190E00E94FB272896E2E00C943C
:10312000E9269091D50292FB222720F9281779F001
:1031300080FB92F99093D5026091D4027091D502F0
:1031400084E090E00E94072882E00E94100A08951F
:10315000B0E0A0E0EEEAF8E10C94C5268C01FC0199
:103160008481882309F49BC021E0408151816281E0
:10317000738195810E94710AEC018834FEE79F07F4
:1031800009F4F9C0E0F582349E4709F499C0C334CC
:103190008EE7D807B8F4C0349EE7D90709F463C0B6
:1031A00008F082C0C132F8E7DF0709F4C7C0FE01AA
:1031B000E851FC47E730F10508F052C1E45BF74DF8
:1031C0000C944C27C4342EE7D20709F4A3C008F4AA
:1031D0008EC0C5348EE7D80709F4A8C0C7349EE76F
:1031E000D90729F7F8018581882309F4C0C08091A7
:1031F000D40282FDB7C088E80E94921641C08C3488
:10320000EEE79E0709F4DAC070F4F8018581CA344C
:10321000FEE7DF0709F4CCC008F4BCC0882381F1C5
:103220008EEB90E0A1C08E349E4709F4D7C0CE3417
:103230008EE7D80708F4CAC0CF349EE7D90709F44F
:10324000DBC0C035EEE7DE0709F0B1CFF8018581BC
:10325000882309F4DFC080EE0E94921682EE0E945D
:10326000921683EEC9CFF8018581882349F061E089
:1032700083E090E00E94E92781E090E00E94490A03
:103280008091EC01877059F0F8018581882339F02D
:103290008091D50282FF03C082E00E94100ACDB760
:1032A000DEB7EAE00C94E126F8018581882341F33A
:1032B00062E083E090E00E94E92782E090E0DECFC8
:1032C000F8018581882359F08091C601811103C0DE
:1032D00081E08093C60182E00E94270A05C0109217
:1032E000C60182E00E94FE090E94370AC9CFF80198
:1032F0008581882349F08091C601811103C081E056
:103300008093C60183E0E8CF83E00E94FE0910921B
:10331000C601EACFF8018581882321F084E00E946C
:10332000270AAECF84E00E94FE09AACFF80185816A
:10333000882311F085E0F3CF85E0F5CFF801858192
:10334000882309F49DCF809148020E94B10F0E940A
:10335000BF0F8091C102869590E0909349028093BF
:1033600048028ECF86ED90E00E941C1789CF88E836
:103370000E94651685CFF8018581882349F08091E8
:10338000D40282FD02C087E837CF8EEC90E0ECCF0C
:1033900087E8EECF882309F473CF0E94D90F80917C
:1033A000C10281608093C10286950E94B10FD1CF86
:1033B000882309F465CF86EC90E0D6CFF8018581AB
:1033C000882309F45DCF85EB90E0CECFF8018581AD
:1033D000882309F455CF8CEA90E0C6CFF8018581A7
:1033E000882329F080EE0E9492168DE305CF80EEAF
:1033F0000E9465168DE3BCCFF8018581882329F0F2
:1034000080EE0E9492168BE3F7CE80EE0E94651646
:103410008BE3AECF80EE0E94651682EE0E946516A9
:1034200083EEA6CF26E241EE61EEC8010E94C617E8
:1034300027CF27E245EE65EEF8CF26E241EE60EEBB
:10344000F4CF27E245EE64EEF0CF26E241EE62EEE5
:10345000ECCF27E245EE66EEE8CF28E241E0EBCF85
:10346000F8018581882309F4F4C310924103CE0149
:103470009057839708F0D7C384E090E00E94D32749
:103480009093D5028093D402FE01E150F047E232DE
:10349000F10520F4ED5AF74D0C944C278091D4029D
:1034A00081608093D40295C08091D502886080931A
:1034B000D5028FC08091D4028260F3CF8091D40274
:1034C0008460EFCF8091D4028860EBCF8091D502E9
:1034D0008160EDCF8091D5028260E9CF8091D402E6
:1034E0008061DFCF8091D4028062DBCF8091D402F3
:1034F0008064D7CF0E946D138091D4028068D1CFB1
:103500008091D4028C60CDCF8091D5028360CFCFE3
:103510008091D4028E7FC5CF8091D502877FC7CF9F
:103520008091D4028D7FBDCF8091D4028B7FB9CFA3
:103530008091D402877FB5CF8091D5028E7FB7CF9F
:103540008091D5028D7FB3CF8091D4028F7EA9CF99
:103550008091D4028F7DA5CF8091D4028F7BA1CFA3
:103560000E946D138091D4028F779BCF8091D402FB
:10357000837F97CF8091D5028C7F99CF8091D402A1
:1035800082FB992790F921E0922790FB82F990FB2A
:1035900083F987CF8091D502982F909591708E7F77
:1035A000892B90FB81F983CF9091D402892F8F7B57
:1035B00096FF806476CF0E946D139091D402892F7C
:1035C00097FB87F980586DCF61E08EE090E00E9414
:1035D000E9276091D4027091D50284E090E00E94C6
:1035E00007280E946D134CCE60E0EFCF9091D4027B
:1035F000892F8F7E94FF806154CF9091D402892FC0
:103600008E7F90FF81604DCF9091D502892F877F6B
:1036100093FF88604CCF2091C10220FF1DC02E7FF8
:103620002093C1023091C2024091C3025091C40262
:103630006091C5027091C6028091C7029091C80244
:103640000E942D0E0E944406809172028160809338
:1036500072020E94FC0A14CE822F81608093C10204
:1036600086950E94B10F0CCE45EB5FE06FEB7FE0DB
:103670000E943E0605CE4FEB5FE065EB7FE0F8CFA2
:1036800041E25FE06BE27FE0F3CF4BE25FE061E2BB
:103690007FE0EECF47E05FE064E17FE0E9CF44E127
:1036A0005FE067E07FE0E4CF4DEE5EE06AEF7EE052
:1036B000DFCF4AEF5EE06DEE7EE0DACF45E35FE01C
:1036C0006FE47FE0D5CF4FE45FE065E37FE0D0CFEC
:1036D00081E0C7CF65E082E00E94CA0FD1CD68E0EB
:1036E00086E0FACF6EE089E0F7CF64E18FE0F4CFB7
:1036F00067E185E1F1CF88E1B4CF62E289E1ECCF07
:1037000083E2AFCF0E946D13FFEF24E33CE0F15062
:1037100020403040E1F700C0000087E797E7909332
:1037200001088093000888E19AE00FB6F894A89504
:10373000809360000FBE90936000FFCF6FEF7FEF2C
:1037400090E080E00E9407280E943E168091D502FA
:1037500082FB882780F991E089270E949118F8015F
:103760008581C081D181882309F44AC0CE010E949D
:103770004F09F82E682FCE010E94C309BE018F2D7C
:103780000E9401080E942008D82FC92FA82EF801F6
:10379000C580B680B2943FE0B3228091EC0187707F
:1037A000F1F0FC2CCC20E1F0892F807F803451F0A7
:1037B00080E28D0F883098F0B11004C0892F807E90
:1037C000803269F08091D50282FF09C082E00E94B8
:1037D000100A8091EC018770FF24F3948111F12C81
:1037E000EC2EE2942FE0E222FBE0FE1508F46DC01F
:1037F000EE2DF0E0EB58F74D0C944C2780E0ADCF68
:10380000CE010E949009F82EB9CF2C2F2F70D22E06
:10381000C07F19F0D29490EFD922CC20B9F0DD20EE
:1038200069F080E28D0F883010F0A11009C08091FE
:103830000F02D82AD0920F020E9418138D2F43C076
:1038400080910E02D82AD0920E02F6CF8D2F0E94C0
:103850006516DD20D1F1D05ED83010F0A11004C083
:103860008D2D0E943E0906C0D09480910E02D82270
:10387000D0920E020E94181328C03C2F3F70D32E06
:10388000C07FC03219F0D29480EFD822AA2059F01C
:1038900081E0A81609F479C0CC2009F485C0BB20CA
:1038A00009F447C0CBCF8091D50282FD3EC0CC2029
:1038B000B1F1DD2039F080910F02D82AD0920F02A9
:1038C0000E94181380E00E9492162E2D2850330B70
:1038D0002430310510F40E94DC0DFF20A9F0809106
:1038E000EC0180FD11C0F8011582869586958695BC
:1038F0000E94270AC8010E94A8188091EC018695B1
:10390000869586950E94FE0920E0F801408151814C
:1039100062817381848195810E94710AC0CC80E0AC
:103920000E946516DD2089F29BCFCC20A1F0B1105A
:1039300004C08D2D0E945B16C8CF91E0B912C5CF8F
:1039400080910D029D2D9823D91609F4BECFD82A57
:10395000D0920D02BACFB110B8CF8D2D0E9454165F
:1039600090910D028D2D892329F08D2D809589232D
:1039700080930D028091C8019D2D982309F4A5CF55
:10398000D094D822D092C801A0CFCC2029F0E5E075
:10399000EB1508F49ACFCDCFF4E0FB1508F495CFE2
:1039A0008D2D0E94541691CFBB20D1F329E3A21292
:1039B00009C03FEF87EE93E0315080409040E1F73F
:1039C00000C000008D2F0E9465167FCF8C2F86953A
:1039D0008695837069F0813009F077CF8D2F9C2F09
:1039E0009370C11002C080E090E00E94F4056DCF9A
:1039F0008D2F9C2F9370C11002C080E090E00E9438
:103A0000190663CF8C2F837009F03FC0C1105DCFC2
:103A10004D2F429546954770440F440F2D2F2F7020
:103A200030E0042E02C0220F331F0A94E2F790E028
:103A300080E0D4FF09C08FE090E002C0880F991F9A
:103A40004A95E2F780959095C695C695C370C230A9
:103A500099F078F44091100250911102C13039F080
:103A6000822B932B842395230E94490A2ECF242B4B
:103A7000352B822B932BF8CF822B932B2091100286
:103A80003091110282279327EFCF8695CC2011F039
:103A90008C2F8170882309F418CF4D2F42954695BD
:103AA0004770440F440F2D2F2F7030E0042E02C0BA
:103AB000220F331F0A94E2F790E080E0D4FF09C0A0
:103AC0008FE090E002C0880F991F4A95E2F7809539
:103AD0009095C695C695C370C23099F078F4409120
:103AE000420350914303C13039F0822B932B84233E
:103AF00095230E94F909E9CE242B352B822B932B99
:103B0000F8CF822B932B20914203309143038227DD
:103B10009327EFCFCF70CC2029F08C2F0E94270A5B
:103B20008D2F08CF8D2F0E9454168C2F0E94FE09D6
:103B3000CCCE8D2FE2EFAE1699F1EA1570F0F0EFD2
:103B4000AF16D1F021EFA21691F0CC2009F45BC0A2
:103B5000B11074CE8C2F8F7127C033EFA31639F1BB
:103B600094EFA912F2CF8091D50282FD2EC08C2F46
:103B70008F71CC20D9F218C0CC2069F0E4E0EB15AD
:103B800008F4A3CECF7181E090E002C0880F991FA6
:103B9000CA95E2F7B8CFF5E0FB1508F496CEF2CF60
:103BA0008C2F8F71C110C2CF0E94270A8ECE90E059
:103BB00080E0CC2009F49DCFCF7181E090E002C07D
:103BC000880F991FCA95E2F794CFCC2089F0CF7166
:103BD0008C2F0E94270A8091D50282FF07C028E01F
:103BE000C29FC001112483608093EC018C2FDCCF35
:103BF00081E00E94100A31E03B1508F066CE82E0B9
:103C00000E94100A62CEBB2059F0893309F0DACE47
:103C10008FEF97EEE3E081509040E040E1F7D0CEA7
:103C20008C2F8F7183CFC631FCE7DF0701F58091C0
:103C30000F028A7A91E009F490E09093C70169E25B
:103C4000811165E386EA91E00E94BF050E94181386
:103C500017CBC6312CE7D20751F58091C70169E235
:103C6000811165E386EA91E00E949505EFCFC330AC
:103C70003CE7D30709F462CD50F4C1159CE7D9079E
:103C800009F440CDC130DC4709F45ECD68CDCB35B9
:103C9000FCE7DF0709F4B2CDCC352CE7D20709F4F5
:103CA00055CDCA35DC4709F05ACD81E056CD80911B
:103CB0000F028272FE01E052F847E531F10508F08B
:103CC0004ECDEF57F74D0C944C27CF93DF93809157
:103CD000EB01807F09F04DC08091EA01882309F44F
:103CE00048C0E0913E0350910503C091E601D09198
:103CF000E5016091E7017091E80147E05E17C9F1C5
:103D00008E2F90E0E49FF0011124EA5FFC4F2481A4
:103D1000222391F1489FF001499FF00D1124DF010A
:103D2000AA5FBC4F11962C9111972C1325C02C9192
:103D30002D1322C015962C91159721111DC0129696
:103D40002D913C91261B370B24363105A8F4809128
:103D5000EB018F7080618093EB01E45FFC4F808109
:103D60008F708061808385EE91E00E94A8180E9488
:103D70004509DF91CF910895FC013196E770BECFE0
:103D8000A4E1B0E0E6ECFEE10C94C3268C0186E0F1
:103D9000F801DE011F9601900D928A95E1F7F80176
:103DA0008481E58095EEA92E91E0B92E9091E901EC
:103DB000911128C0882319F1EE20F1F0C8010E946A
:103DC0004E0AF82E8823C1F087E0F801D501019052
:103DD0000D928A95E1F78091E901813031F480916B
:103DE000E5019091E6010E9483090E94651E8F2DD6
:103DF0006496ECE00C94DF26C8010E94A818FF240A
:103E0000F394F5CFD080C18082809380F090EA0156
:103E10002091E7013091E801A401421B530BFF20E0
:103E200009F4E5C04436510508F09EC08823F9F234
:103E30009091E6018091EB01282F207F09F056C078
:103E4000C91214C09091E501D91210C0E11048C008
:103E50008F7080618093EB0185EE91E00E94A8183D
:103E60008091EB01F8018683F12CC1CFE11038C0BD
:103E70006C2D8D2D0E94D9036C2D8D2D0E94D903A0
:103E8000E82E8111F1CFDF86C88A8F8598890E943C
:103E90008309292F22952F70243058F49F702230E7
:103EA00088F0992399F0F8019681907F79F4FE2C9F
:103EB0009ECF2A5F2F70223068F0C8010E94A81898
:103EC000EF2CF5CF992311F0882389F3805E883099
:103ED00070F3F3CF803F58F3815F833070F7E7CF03
:103EE0008091EB0181608093EB01BECFC91213C0BA
:103EF0009091E501D9120FC0E1100DC08683C80171
:103F00000E94A81887E0F801A5EEB1E001900D929B
:103F10008A95E1F76CCFC8010E944E0A882309F404
:103F20006BCFEE2009F468CF8091EB01803288F0EE
:103F30002091E5013091E601398728879B868A86A2
:103F40009091E9019C871D868E87CE0108960E947C
:103F5000A81887E0F801A5EEB1E001900D928A95CE
:103F6000E1F70E94651E4BCF9091EB01292F207F36
:103F700051F485EE91E00E94A81887E0F5011192B6
:103F80008A95E9F771CF882309F431CF8091E60152
:103F90008C1110C08091E501D8120CC0E1100AC04C
:103FA0009683C8010E94A81887E0F50111928A95AE
:103FB000E9F71DCFC8010E944E0A882309F41CCFDF
:103FC000EE2009F419CF8091EB01803210F220919C
:103FD000E5013091E6013A8329839C828B8290919E
:103FE000E9019D831E828F83CE010196B0CF4436B6
:103FF0005105D0F6882309F402CFFE2CEE2009F4F7
:10400000FBCE8091E6018C1105C08091E501D816A8
:1040100009F478CFC8010E944E0A81119ACF80918D
:10402000EB0181608093EB01C8010E94A818DFCEEC
:10403000ABE1B0E0EEE1F0E20C94CB264E8B5F8B6F
:10404000688F798F8A8F9B8F192F911110920E0292
:104050001D8A86E0FE017696DE011F9601900D9284
:104060008A95E1F70A8D002341F021E04F855889B8
:1040700069897A89C8010E94710A0B8B1C8B87E0C1
:10408000FE013F96DE01189601900D928A95E1F7A8
:10409000CE0108960E94C01E81110CC087E0FE016F
:1040A0003896DE01119601900D928A95E1F78C8584
:1040B00081110BC017E080913E0390910503891395
:1040C00031C06B96E4E00C94E7262091050330E0C4
:1040D000C90101968770992740913E034817190638
:1040E00099F097E0929FD001939FB00D1124AA5FA1
:1040F000BC4FFE01319601900D929A95E1F78093A5
:1041000005030E944509D6CF0E946D131092050346
:1041100010923E0387E0E5EEF1E0DF011D928A9503
:10412000E9F7C8CF819FC00111248A5F9C4F0E948C
:10413000C01E882331F280913E0390E00196877083
:10414000992780933E03B7CFA6E0B0E0EAEAF0E219
:104150000C94CB260E9489058C01809112029091CB
:1041600013028017910781F019821A820E94890533
:10417000682F49815A81792F80E090E00E941820B1
:1041800010931302009312022696E4E00C94E726A3
:104190001F920F920FB60F9211242F933F934F93BC
:1041A0005F936F937F938F939F93AF93BF93CF93BF
:1041B000DF93EF93FF93D091E900DF708091EC00E3
:1041C000C82FC17080FDC0E81092E9008091F00016
:1041D000877F8093F00078940E948D131092E900FD
:1041E0008091F00088608093F000CD2BCF70C09359
:1041F000E900FF91EF91DF91CF91BF91AF919F9136
:104200008F917F916F915F914F913F912F910F907F
:104210000FBE0F901F9018951F920F920FB60F921E
:1042200011242F933F934F935F936F937F938F93BB
:104230009F93AF93BF93EF93FF938091E10082FF31
:1042400009C08091E20082FF05C08091E1008B7F70
:104250008093E1008091DA0080FF24C08091D80033
:1042600080FF20C08091DA008E7F8093DA008091F9
:10427000D90080FF9DC080E189BD82E189BD09B47C
:1042800000FEFDCF81E08093FB028091D602811178
:1042900009C00E940F040E94B0048091E200846073
:1042A0008093E2008091E10080FF17C08091E200DE
:1042B00080FF13C08091E2008E7F8093E2008091A6
:1042C000E20080618093E2008091D8008062809358
:1042D000D80019BC85E08093FB028091E10084FF47
:1042E0002BC08091E20084FF27C080E189BD82E17C
:1042F00089BD89B5982F917080FFFBCF8091D80040
:104300008F7D8093D8008091E1008F7E8093E100C3
:104310008091E2008F7E8093E2008091E2008160D4
:104320008093E2008091FC02882309F447C084E076
:104330008093FB028091FB028091E10083FF27C004
:104340008091E20083FF23C08091E100877F80930A
:10435000E10082E08093FB021092FC028091E10078
:104360008E7F8093E1008091E2008E7F8093E20057
:104370008091E20080618093E20042E060E080E0B2
:104380000E947E048091F00088608093F000FF918D
:10439000EF91BF91AF919F918F917F916F915F91BD
:1043A0004F913F912F910F900FBE0F901F90189536
:1043B00019BC1092FB021092D60274CF8091E300D8
:1043C00087FD93E09093FB02B5CF78941F921FB6C0
:1043D0001F9211248F939F93AF93BF938091D0022C
:1043E0009091D102A091D202B091D3020196A11D69
:1043F000B11D8093D0029093D102A093D202B093CA
:10440000D302BF91AF919F918F911F901FBE1F90BC
:1044100018951F921FB61F9211248F939F93AF93ED
:10442000BF938091CF02811113C08091D0029091EF
:10443000D102A091D202B091D3024196A11DB11D2B
:104440008093D0029093D102A093D202B093D30272
:10445000BF91AF919F918F911F901FBE1F90189594
:1044600000D000D000D0CDB7DEB785B7806885BF5B
:1044700085B7806885BF84B7877F84BF0FB6F894FF
:10448000A895809160008861809360001092600020
:104490000FBE80E890E00FB6F8948093610090938F
:1044A00061000FBE87EF96E09093A5018093A40171
:1044B0000E940F040E94B0048091E2008460809307
:1044C000E20078948091FB028823A1F01091E9002A
:1044D0001F709091EC00892F817090FD80E8182B5F
:1044E0001092E9008091E80083FD0E948D131F70F7
:1044F0001093E90082E084BD93E095BD9AEF97BDEB
:1045000080936E001092440210924502109246026F
:10451000109247020E94B90D809320010E94B90DAC
:1045200081110E945B25809120018091200194E0FF
:10453000811190E09093530284E0891B8093520292
:1045400084E90E94F90686E60E94F90687E90E943E
:10455000F90686EC0E94F90607E711E08EE7E82EDF
:1045600081E0F82ED8018D918D018F3F11F00E94CE
:10457000F906E016F106B1F788E0E5E5F2E0DF01C3
:10458000282F1D922A95E9F7EAE4F2E0DF011D9257
:104590008A95E9F70E94B90D8091C102869590E055
:1045A000909349028093480290E080E00E94D327D4
:1045B000863E9E4F11F00E94231882E090E00E94F8
:1045C000C52780935D0284E090E00E94D3279093FA
:1045D000D5028093D40283E090E00E94C52790E04A
:1045E0000E94490A8091540281117BC090E080E0D2
:1045F0000E94D327863E9E4F21F00E9423180E94DE
:10460000D90F88E090E00E94CD274B015C0184E245
:1046100090E00E94C527282F30E040E050E060E0A5
:1046200070E080E090E000E20E9483272829392989
:104630004A295B292093C1023093C2024093C302EE
:104640005093C4026093C5027093C6028093C70260
:104650009093C802809172028360809372022E7FD1
:1046600089F50E94D90F88E090E00E94CD276B0168
:104670007C0184E290E00E94C527282F30E040E0D2
:1046800050E060E070E080E090E00E948327B22F6D
:10469000A32FF42FE52F5B0197018601BC29A12BE5
:1046A000FE29E32BB093C102A093C202F093C30290
:1046B000E093C4026093C502B092C6028093C70221
:1046C0009093C8020E944B060E9444068091C1024A
:1046D00080FF04C060E086950E94690F81E08093AE
:1046E00054020E94B90D811102C00E945E2581E230
:1046F00091E09093CC028093CB02B8E1CB2ED12CE9
:1047000010E4A12E7724739466246394A0E1BA2E5A
:104710008091FB0212E1853009F47FC00E9456119E
:104720000EE512E0F5E5EF2EF2E0FF2ED701F801DD
:1047300091918D9142E0E636F40709F478C098171C
:10474000B9F30E94B90D282E912CD7018D907D01CF
:10475000F80131908F01381429F13824512C442468
:104760004394832D8421B1F02220A1F059829A82B2
:104770000E9489059C838B836D8291E0882D842122
:1047800009F490E09E8349815A816B817C818D81FF
:104790000E9418205394440CF7E05F12E2CFF80116
:1047A00031978082939428E09212CFCF0E94ED0D32
:1047B00042C08091FB02843009F11092CF020FB603
:1047C000F894A895C09260000FBEA092600083B7D5
:1047D000817F846083BF83B7816083BF789488952D
:1047E00083B78E7F83BF0FB6F894A8958091600041
:1047F000886180936000109260000FBE8091FA0281
:10480000882359F00E945611E5E5F2E0819181116B
:10481000E2C022E0ED35F207C9F78091FB02853056
:1048200009F4C7CF0E946D130E94DC0D77CF981357
:1048300088CF0E94A4200E94B90D80917102882324
:1048400009F463C080917002E091C102E695E81B13
:10485000E0936C02823009F064C0F0E0E457FC4F52
:10486000E4910E2F10E0E2E7EE2EEDE0FE2E8091B7
:104870006D02882361F010926D020E94070E9093E2
:104880006B0280936A0210926F0210926E020E9475
:10489000070EE0916A02F0916B029C012E1B3F0B08
:1048A0002F3F3F4790F5209168022223B1F01092EC
:1048B00068022091660230916702821B930B8F3F42
:1048C0009F4758F4205D3A48309367022093660270
:1048D0008091720288608093720280906E02909044
:1048E0006F02E00FF11FF0936B02E0936A028AE619
:1048F00092E0F701099580916E0290916F02892BE9
:1049000021F4892811F0709268020E94DC0D9091C8
:104910006902891709F4FCCE809369020E947D0523
:10492000F5CE863059F4F0E0E757FC4FE4910E2FB6
:1049300010E072E6E72E7DE0F72E99CF893061F422
:10494000E695F0E0EA57FC4FE4910E2F10E060EDA1
:10495000E62E6CE0F62E8BCF8F3061F4E695F0E01A
:10496000ED57FC4FE4910E2F10E05EE4E52E5CE085
:10497000F52E7DCF853159F4F0E0E058FC4FE491FD
:104980000E2F10E049EEE42E4BE0F42E70CF08E23B
:1049900010E09BE6E92E9BE0F92E883109F467CF01
:1049A000833249F4EEE7F3E0059114913EE0E32E03
:1049B0003DE0F32E5CCF04EF11E021E3E22E2BE08B
:1049C000F22E843209F453CF00ED17E089E6E82E89
:1049D00085E0F82E4CCFB9BC19BD09B400FEFDCF5F
:1049E0008091D8008F7D8093D8008091E000826014
:1049F0008093E0008091E00081FDFCCF0E946D1368
:104A00000CCF8EE14A9B02C08150E1F74A9BFECF5A
:104A100008955A9880E28A95F1F75A9A0895FC0110
:104A20003BE03A95F1F798E020E080E031E040E1AA
:104A30004A95F1F7880F4A9B02C08160232742E024
:104A40004A95F1F7000040E14A95F1F7915079F766
:104A500090E19A95F1F799B132E03A95F1F70000BB
:104A600040E14A95F1F792FB992790F9922720812E
:104A7000920F90830895A1E0B0E0E1E4F5E20C9498
:104A8000C92619828C017C01E60EF11C0E151F054A
:104A900041F481E09981911180E02196E6E00C9447
:104AA000E5260E940125CE0101960E940F25F801FE
:104AB00081938F01EBCF529A5A9A089552985A9A3D
:104AC000EA9AE9E6F0E080818F7C80830895615066
:104AD000770B91E001C0990F6A95EAF720E031E089
:104AE000911108C0222391F05A9A80E28A95F1F739
:104AF0005A980895492F482339F05A9A232740E2BB
:104B00004A95F1F79695ECCF5A98F9CF5A98EDCF90
:104B1000FF920F931F93CF93DF93EC018C01060F4D
:104B2000111DC017D10729F4CDB7DEB7E5E00C940D
:104B3000E626F9900E94092568E08F2D0E946725DE
:104B4000F0CF1F920F920FB60F9211240F931F9365
:104B50002F933F934F935F936F937F938F939F9385
:104B6000AF93BF93EF93FF93CF93DF930F92CDB7A4
:104B7000DEB719820E940125CE0101960E940F2501
:104B8000082F069506950695282F22952570902FBB
:104B90009570290F922F937026952695920F98273E
:104BA00097708981982B09F05CC0053008F059C0D6
:104BB00080E18A95F1F75A9A529A82E08A95F1F744
:104BC00000C05A9888E0089F80011124D801A050A5
:104BD000BF4F1696ED91FC9117973097A9F0609111
:104BE00071017091720114962D913C911597260FC9
:104BF000371F11968D919C911297680F791F13960C
:104C00004C9113978C910995F801E050FF4F638107
:104C1000662351F020917101309172018481958158
:104C2000820F931F0E9488250E94092580E18A95A2
:104C3000F1F75A9852985A9A80E18A95F1F7F8015B
:104C4000E050FF4F6081662351F020917101309157
:104C5000720181819281820F931F0E943B250E94E5
:104C600001250F90DF91CF91FF91EF91BF91AF910F
:104C70009F918F917F916F915F914F913F912F9174
:104C80001F910F910F900FBE0F901F9018950F93CB
:104C90001F93CF93DF93EC0105970CF04CC0F89471
:104CA000529A5A9885E08A95F1F700009C2F9695C4
:104CB00095708C2F8570980F892F83709695969597
:104CC00023E0CC0FDD1F2A95E1F7980F8E01092B09
:104CD0000E94092500C068E0802F0E94672580E1BE
:104CE0008A95F1F752985A9A4A9B1EC087E090E045
:104CF0004A991CC0FE01E050FF4F63816623F9F022
:104D0000209171013091720184819581820F931FEE
:104D10000E943B25811113C0529A5A9A7894DF91D0
:104D2000CF911F910F91089500C0DECF019729F414
:104D3000529A5A9A789480E0F2CF00C0D9CF0E945C
:104D4000012580E28A95F1F75A98529A80E18A9576
:104D5000F1F7C050DF4F6881662351F02091710157
:104D60003091720189819A81820F931F0E94882558
:104D70000E940925789481E0D2CF2F923F924F92E2
:104D80005F926F927F928F929F92AF92BF92CF92DB
:104D9000DF92EF92FF920F931F93CF93DF93CDB7E4
:104DA000DEB7CA1BDB0B0FB6F894DEBF0FBECDBF5C
:104DB00009942A88398848885F846E847D848C842D
:104DC0009B84AA84B984C884DF80EE80FD800C8136
:104DD0001B81AA81B981CE0FD11D0FB6F894DEBF19
:104DE0000FBECDBFED01089587FB082E062687FD77
:104DF000819567FD61950E94B9270EF4919507FC96
:104E000081950895AA1BBB1B51E107C0AA1FBB1FB8
:104E1000A617B70710F0A61BB70B881F991F5A9546
:104E2000A9F780959095BC01CD01089597FB072EB9
:104E300016F4009407D077FD09D00E94022707FCE2
:104E400005D03EF4909581959F4F0895709561959A
:104E50007F4F0895A1E21A2EAA1BBB1BFD010DC0B6
:104E6000AA1FBB1FEE1FFF1FA217B307E407F5071A
:104E700020F0A21BB30BE40BF50B661F771F881FF6
:104E8000991F1A9469F760957095809590959B018C
:104E9000AC01BD01CF010895EE0FFF1F0590F49105
:104EA000E02D09940E945A27332312F48A1B9B0B8E
:104EB0000C946B27A29FB001B39FC001A39F700DFC
:104EC000811D1124911DB29F700D811D1124911D12
:104ED00008950E945A27B7FF0895821B930B0895E7
:104EE0000E945A27A59F900DB49F900DA49F800DFE
:104EF000911D11240895B7FF0C9470270E9470270C
:104F0000821B930B0895002E083090F0982F872F66
:104F1000762F652F542F432F322F22270850F4CF9E
:104F2000220F331F441F551F661F771F881F991FAD
:104F30000A95B2F7002D089597FD1094002E0830C1
:104F400098F00850232F342F452F562F672F782F96
:104F5000892F912DF4CF159497958795779567951F
:104F600057954795379527950A95AAF71124002D4F
:104F70000895991B79E004C0991F961708F0961BB5
:104F8000881F7A95C9F780950895F999FECF92BD4B
:104F900081BDF89A992780B50895A6E1B0E044E074
:104FA00050E00C940F28A8E1B0E042E050E00C94EF
:104FB0000F28DC01A40FB51F4150504048F0CB0131
:104FC000840F951F2E910E94EA2741505040D0F740
:104FD0000895262FF999FECF92BD81BDF89A0197C9
:104FE00000B4021639F01FBA20BD0FB6F894FA9A31
:104FF000F99A0FBE08950396272F0E94EA270E9470
:10500000E927252F0E94EA27242F0C94EA270196EE
:10501000272F0E94EA270C94E927DC01CB01FC0131
:10502000F999FECF06C0F2BDE1BDF89A319600B401
:105030000D9241505040B8F70895FC014150504046
:1050400030F001900616D1F73197CF0108958827E7
:1050500099270895FB01DC0104C08D91019080190E
:1050600021F441505040C8F7881B990B0895FB016B
:10507000DC0102C001900D9241505040D8F70895D4
:10508000F894FFCF6C1494142C1694142C16C71497
:10509000E8142C16E515F2151D1A211A121A191A00
:1050A000251A291A2D1A881AFD1A901A5A1A5E1AE8
:1050B000941A621A981AA41A6E1AF61A721AA81A70
:1050C000761AAC1AD41A7A1AB01ADB1A801AB61ADF
:1050D000BE1A661A9C1A6A1AA01A841ABA1ACA1A2E
:1050E000E41AF41A541A8C1A041B051C051C3D1CE6
:1050F0003D1CE61C651C651C651C021D8A1D991D56
:10510000991D0B1B341B3B1B401B451B4A1B4F1B94
:10511000541B591B5E1B631B681B6A1B6F1B721B96
:0C512000751B781B7B1B7D1B801B40193E
:10512C00000000010000000000000004010000006D
:10513C0004050000000000000B0900000000000046
:10514C00016B05D80A6A05D10A01191A1B1C1D1E10
:10515C001F20212201020101818283E200E900EA81
:10516C0000B500B600B700CD008301CC008A0192D7
:10517C000194012102230224022502260227022A7D
:10518C0002B300B4006F0070009F01CB019F02A01E
:10519C00022B02946697C6F4F5F6F7313332000110
:1051AC00020202020606060909090909090F0F0F76
:1051BC000F0F0F151515181919191919191919197E
:0451CC00192324007F
:00000001FF
