:100000000C94A3030C94C0030C94C0030C94FF2B1A
:100010000C94C0030C94C0030C94C0030C94C00354
:100020000C94C0030C94C0030C94B6250C94722558
:100030000C94B3260C94C0030C94C0030C94C0031E
:100040000C94C0030C94DA260C94C0030C94C003E7
:100050000C94C0030C948F260C94C0030C94C00322
:100060000C94C0030C94C0030C94C0030C94C00304
:100070000C94C0030C94C0030C94C0030C94C003F4
:100080000C94C0030C94C0030C94C0030C94C003E4
:100090000C94C0030C94C0030C94C0030C94C003D4
:1000A0000C94C0030C94C0030C94C0030763423645
:1000B000B79BD8A71A39685618AEBAAB558C1D3CF9
:1000C000B7CC5763BD6DEDFD753EF6177231BF00BD
:1000D0000000803F08000000BE922449123EABAAF7
:1000E000AA2ABECDCCCC4C3E00000080BEABAAAA52
:1000F000AA3E00000000BF000000803F000000009A
:1001000000084178D3BB4387D1133D190E3CC3BDD2
:100110004282AD2B3E68EC8276BED98FE1A93E4C7F
:1001200080EFFFBE01C4FF7F3F000000000001021E
:10013000E0770103E075000102E0770103E0680069
:100140000102E35D0103E3000102E35B0103E3005D
:100150000102E2600103E2000102E2600103E20049
:10016000167C14001A0008001500170000002B0070
:1001700004001600070009000A000000E1001D004D
:100180001B000600190005000000E000E200447EAC
:10019000E200E3002C00427E2A00130012000C0053
:1001A00018001C000000280033000F000E000D0096
:1001B0000B000000E5003800370036001000110089
:1001C00000004F00520051005000E7002C00437E19
:1001D000167C14001A00090013000A0000002B000E
:1001E000040015001600170007000000E1001D00C4
:1001F0001B000600190005000000E000E200447E3C
:10020000E200E3002C00427E2A0033001C001800AC
:100210000F000D000000280012000C000800110063
:100220000B000000E50038003700360010000E001B
:1002300000004F00520051005000E7002C00437EA8
:1002400035001E001F0020002100220000003900A0
:10025000010049004A004B00497E000001000100F6
:100260004C004D004E004B7E0000010001000100DB
:100270000100010001000100010027002600250007
:10028000240023000000340030002F0057002D0010
:100290004A7E00000100310001002E002D024C7E3C
:1002A000000001000100010001008700010088003A
:1002B000010042004300440045004A0000000100E4
:1002C0003E003F00400041004D00000001003A00A8
:1002D0003B003C003D000100000001000100010066
:1002E00001000100010001004A004B0001004C0028
:1002F0004900010000004D004E004F005200510027
:1003000050000000010001000100AB00A900AE0098
:100310000000AB00A900AA00AC00AA00A8000100E0
:10032000017C407E417E92748A74827400000100D8
:100330000100010093748D749574000001000100A8
:10034000010001008E74947400000100010001009E
:100350000100010001000100207821782278327824
:100360002E782F78000027782578237833782C781A
:10037000307800002878267824782B782D7831780A
:100380000000487E010001000100010001000100A1
:1003900000047F3F1F643214643214783C1E1E1424
:1003A0000A0500010101010101010101020202022D
:1003B000020202020203030303030303030404040F
:1003C00004040404050505050506060606060707D8
:1003D00007070708080808090909090A0A0A0B0B90
:1003E0000B0C0C0C0D0D0D0E0E0E0F0F0F1010112F
:1003F00011111212131314141515161617171818B5
:1004000019191A1A1B1B1C1D1D1E1E1F202021221C
:1004100022232424252626272829292A2B2C2D2D62
:100420002E2F30313232333435363738393A3B3C7F
:100430003D3E3F404142434445464748494A4C4D72
:100440004E4F50515354555658595A5B5D5E5F613B
:100450006264656668696B6C6D6F707273757778CE
:100460007A7B7D7E8082838587888A8C8E8F91932C
:100470009596989A9C9EA0A2A3A5A7A9ABADAFB153
:10048000B3B5B7BABCBEC0C2C4C6C9CBCDCFD1D438
:10049000D6D8DBDDDFE2E4E7E9EBEEF0F3F5F8FADE
:1004A000FDFFFFAA7F55402223252628292A2C2D2F
:1004B0002F3032333536383A3B3D3E404243454794
:1004C000494A4C4E5051535557595A5C5E606264CC
:1004D0006668696B6D6F71737577797B7D7F8183DA
:1004E0008587898A8C8E90929496989A9C9E9FA1DB
:1004F000A3A5A7A8AAACAEAFB1B3B4B6B8B9BBBCFC
:10050000BEBFC1C2C3C5C6C7C9CACBCCCDCED0D170
:10051000D2D2D3D4D5D6D7D7D8D9D9DADADBDBDB68
:10052000DCDCDCDCDCDDDDDDDDDCDCDCDCDCDBDB09
:10053000DBDADAD9D9D8D7D7D6D5D4D3D2D2D1D05D
:10054000CECDCCCBCAC9C7C6C5C3C2C1BFBEBCBB5A
:10055000B9B8B6B4B3B1AFAEACAAA8A7A5A3A19FD2
:100560009E9C9A98969492908E8C8A898785838196
:100570007F7D7B79777573716F6D6B696866646277
:10058000605E5C5A5957555351504E4C4A49474545
:100590004342403E3D3B3A3836353332302F2D2CE6
:1005A0002A29282625232205010980A1018503196E
:1005B000012AB700150126B700950175108100C00A
:1005C000050C0901A101850419012AA002150126C3
:1005D000A002950175108100C005010906A1010561
:1005E0000719E029E7150025019508750181029595
:1005F00001750881010507190029FF150026FF0074
:1006000095067508810005081901290595057501EC
:100610009102950175039101C009023B000201009E
:10062000A0320904000001030101000921110100A9
:1006300001224000070581030800010904010001AF
:100640000300000009211101000122320007058288
:100650000320000112010002000000086702AC053F
:100660000200010200011403480065006C006900EB
:1006700078005000690063006F0000001403590007
:1006800075007300680061006B006F0062006F000E
:100690000000040309040000000000000000000046
:1006A000000000000000000000000000000000004A
:1006B000000000000000000000007E0F00D4FFFFDB
:1006C000FFC70000007800000000000000002A2B97
:1006D00028000000000000000000000000000000F2
:1006E0000029000000002C1E34202122243426275B
:1006F000252E362D3738271E1F202122232425267C
:100700003333362E37381F0405060708090A0B0C49
:100710000D0E0F101112131415161718191A1B1C91
:100720001D2F3130232D350405060708090A0B0C4F
:100730000D0E0F101112131415161718191A1B1C71
:100740001D2F3130354C11241FBECFEFDAE0DEBF54
:10075000CDBF26E0A8EEB4E001C01D92A53AB207D5
:10076000E1F714E0A0E0B1E0ECEAF5E602C00590A4
:100770000D92A83EB107D9F70E947E280C948032D2
:100780000C940000CF92DF92EF92FF92E091A206CC
:10079000EE2309F1E15088E0E802F0011124EE595E
:1007A000F94FC280D380E480F58020E030E0A901D9
:1007B000C701B6010E94312F18166CF480916106B2
:1007C000811102C010926006C701B601FF90EF9040
:1007D000DF90CF900895C12CD12C7601F5CFFC018C
:1007E000AC014C5F5F4F8FEF91E32191822728E0AE
:1007F00030E087FF09C0880F892721503109C9F7E8
:10080000E417F50791F70895880FF7CFE8EDF0E0CA
:1008100080818E7F80831092E2001092DA00109225
:10082000E100A0EEB0E08C9181608C9380818F77A5
:10083000808319BCA7EDB0E08C918E7F8C93808172
:100840008F7E80831092360608952091E4003091C7
:10085000E50095E6A9012091EC00822F817020FF30
:1008600006C08091E80080FF06C080E008952091D6
:10087000E80022FD1AC080914306882389F0853064
:1008800089F08091EB0085FD0FC02091E40030914C
:10089000E50042175307F9F29150E1F684E008951C
:1008A00082E0089583E0089581E0089580914506EF
:1008B00087FF13C08091E80082FF06C08091E800A6
:1008C0008B778093E80004C0809143068111F2CFBA
:1008D0000895809143068823D9F38091E80080FF32
:1008E000F8CF8091E8008E77ECCF982F9093E900B5
:1008F000242F762F50E0891731F07091EC00209171
:10090000ED005091F00021FD07C09F5F973071F717
:100910008093E90081E008953091EB003E7F3093B1
:10092000EB003091ED003D7F3093ED003091EB0016
:1009300031603093EB007093EC002093ED00509306
:10094000F0002091EE0027FDE0CF80E00895B0E0B8
:10095000A0E0EDEAF4E00C94252DC8EDD0E088810C
:100960008F7E8883E7EDF0E080818160808384E082
:1009700082BF81E08093360688818E7F888302EE75
:1009800010E0F80110821092DA0081EEC82ED12C0E
:10099000F601108288818F778883888180688883B8
:1009A00088818F7D888319BC10924306109244067B
:1009B000109242061092410690EEE92EF12CF701BA
:1009C00080818B7F808388818160888342E060E0C2
:1009D00080E00E947504F60180818E7F8083F8019B
:1009E000808181608083808188608083F70180813D
:1009F0008E7F8083888180618883CDB7DEB7E8E011
:100A00000C94412DFC0180914B0690914C06861769
:100A10009707A0F06115710529F49091E8009E7781
:100A20009093E80090E06115710551F4911108C0B0
:100A30008091E80082FF34C080E00895BC01F2CFCD
:100A4000809143068823C1F18530C1F18091E8008F
:100A500083FD30C08091E80082FDEACF8091E800FC
:100A600080FFE1CF8091F3002091F200382F6115D3
:100A7000710519F02830310558F091E02830310522
:100A800009F090E02091E8002E772093E800CBCF8A
:100A900081918093F100615071092F5F3F4FE7CF43
:100AA00080914306882341F0853041F08091E80031
:100AB00083FFBECF81E0089582E0089583E008952A
:100AC000089508958091380608959C014FB7F894D1
:100AD0008091320690913306A0913406B09135068C
:100AE0004FBF821B930B08952FB7F8946091320685
:100AF0007091330680913406909135062FBF08958A
:100B00002FB7F8948091320690913306A091340665
:100B1000B09135062FBF08959C01FC0132969FEFDE
:100B200080E04191461751F09F3F19F4411101C0F7
:100B3000982F8F5F8630A9F79F3F09F40895290FFA
:100B4000311D97FD3A95F90162830895A3E0B0E065
:100B5000ECEAF5E00C942B2D20912F063091300615
:100B600028173907A1F09093300680932F06E09163
:100B70002D06F0912E06309751F024E029839B83B7
:100B80008A830680F781E02DCE0101960995239690
:100B9000E2E00C94472DA3E0B0E0E1EDF5E00C9429
:100BA0002B2D20912B0630912C0628173907A1F008
:100BB00090932C0680932B06E0912D06F0912E0643
:100BC000309751F023E029839B838A830680F78145
:100BD000E02DCE01019609952396E2E00C94472D75
:100BE000FA01811101C0FB0109950895E5EDF5E0D9
:100BF0001182828184608283089580912606982FD5
:100C00009E7F61F481708260809326068091290620
:100C10008E3218F08DE28093290608958834B0F35F
:100C200081708664F1CFAF92BF92DF92EF92FF9214
:100C30000F931F93CF93DF93082F162FE901E42F13
:100C4000F0E0EE55FC4F611110C0E4915E2F4E2F85
:100C50004983E8835A83DF91CF911F910F91FF90D1
:100C6000EF90DF90BF90AF900895E62EF12C449165
:100C7000D42EE42FF0E026E0829FC00111242FEF54
:100C800030E0B9010E94602D802F90E0880F991FFD
:100C900055E5569FD001579FB00D11248A1B9B0B21
:100CA000982F990F890F5901AE18BF08AE9ED00139
:100CB000AF9EB00DBE9EB00D11245B2F189F80011A
:100CC0001124012F11275901A01AB10AAE9E8001EB
:100CD000AF9E100DBE9E100D11245901A81AB10827
:100CE000AE9CC001AF9C900DBE9C900D1124892F2D
:100CF0009927281B390B2E9FC0012F9F900D3E9FD7
:100D0000900D1124E92F62307105A1F050F46115A6
:100D1000710509F49DCF6130710581F0EB2F512FE2
:100D200097CF6430710569F080F06630710509F481
:100D30008FCFF4CFE42F4B2F592F8ACFE42F412FA1
:100D400087CFEB2F542F492F83CF4B2F5D2DE12FD2
:100D50007FCFEFE6F0E080818D7F8083E0E8F0E0F8
:100D600080818F7380830895CF92DF92EF92FF92FC
:100D70006B017C0120E030E0A9010E94312F81113C
:100D80000AC0809180008F7380938000FF90EF9065
:100D9000DF90CF90089580918000806880938000DC
:100DA000C092C505D092C605E092C705F092C8056D
:100DB00020E030E040E051E4C701B6010E948E30EF
:100DC0009B01AC0160E074E284E79BE40E94362F53
:100DD0006B017C010E94A82F7093870060938600AE
:100DE00020E030E048E452E4C701B6010E948E30B2
:100DF00020E030E048EC52E40E94362F0E94A82FF9
:100E00007093890060938800C1CF80914C03811159
:100E100022C01092A2060E94A90610925C061092AF
:100E20005D061092510610925006E2E6F6E080E070
:100E300090E0A0E8BFEB1182108282839383A483A9
:100E4000B58317821682389626E0E23AF20799F7C0
:100E500081E080934C0308958091CD0581110E941B
:100E60000507089580E00895F894E82FE295EF7063
:100E7000F0E031A1282F2F7081E090E001C0880FB1
:100E80002A95EAF7982F9095932391A392A1892B05
:100E900082A3789408959091970592FF06C0282F19
:100EA00028712830F9F4877F846093FF06C0282FCB
:100EB00028712831F1F4877E84612091980520FF04
:100EC00006C0382F38713830D9F4877F816021FF10
:100ED00006C0282F28712831D1F4877E816194FDC6
:100EE000877E0895282F24712430F9F68B7F88603F
:100EF000DCCF282F2471243101F78B7E8861DDCF70
:100F0000382F3171313019F78E7F8860E0CF282F6C
:100F10002171213121F78E7E8861E1CF82389105E0
:100F2000B9F1B0F48133910509F47DC048F48932F8
:100F3000910509F46DC08A32910509F47BC00895CA
:100F40008533910509F45FC08933910509F108954E
:100F5000833E9105D9F138F4803E910529F1823E16
:100F6000910579F10895863E9105D9F1873E910565
:100F700009F43EC0843E910541F52091980521FF7A
:100F800024C08091970584FD19C087EE90E00895F4
:100F900020919705237009F05AC02091980523FFEE
:100FA00014C089E290E008952091970520FD38C093
:100FB0003091980530FF09C024FF43C090E080E0E5
:100FC00008952091970522FDF7CF08952091970568
:100FD00022FD3AC03091980530FD39C024FFF5CF8D
:100FE000EDCF2091970523FFF0CF24FDE7CFCDCFA4
:100FF0002091970523FD2EC03091980531FFEECF4B
:1010000084EE90E008952091970525FFDECFC9CFAB
:101010002091970525FD21C02091980523FFD5CF6C
:1010200089E390E0D2CF2091970526FFCECF8AE2C8
:1010300090E008952091970526FFC7CF81E390E0C7
:10104000089583EE90E0089582EE90E0089580EE9A
:1010500090E0089586EE90E0089585E390E008958D
:10106000972F7830B8F46730A8F48530B0F470E08A
:1010700027E0929F600D711D1124FB0198E3899F69
:10108000E00DF11D1124EE0FFF1FE05AFE4F859178
:101090009491089580E090E0089581E0FCCF1F9343
:1010A000CF93DF930E948E07EC01C11580E5D8072E
:1010B000F0F5C11580E4D80708F09CC0C03ED1050A
:1010C00020F5CD3CD10508F082C0C83AD10578F4AE
:1010D000C53AD10508F073C0C130D10519F1209788
:1010E00009F1C430D105F0F4D0E0C0E01BC0C33C2E
:1010F000D105D0F7C85AD0E0CC0FDD1FCF57DB4F5A
:101100000990D881C02DD4640DC0C11580E2D807E4
:1011100008F0D1C0C11581E0D80708F05AC0C83E18
:10112000D10510F7CE01DF91CF911F910895C03600
:1011300082E5D80718F5C03482E5D80708F06BC0FF
:10114000C03282E5D80708F05FC0C11582E5D80734
:1011500008F497C02C2F2695269580E2289F9001B1
:1011600011248C2F8370C1E0D0E002C0CC0FDD1FB2
:101170008A95E2F7C22BD32BDD68D4CFC03A82E543
:10118000D80760F4C03882E5D80708F459C0CF7199
:10119000D0E0DC2FCC27C46FD06AC4CFC03C82E53E
:1011A000D80708F462C0C03E82E5D80708F09CCF9B
:1011B000DC2FCC27CC27DF71C06FD06AB3CFC55AE4
:1011C000D0E0C258DB4FC881D0E0D064ABCFD0654F
:1011D000A9CF8D2F0E944B07182FCE0199270E946F
:1011E0008E07C12FD0E0DC2FCC27CC27DF71C82B96
:1011F000D92B98CFCE0199270E948E07CC27DF707C
:10120000C82BD92BD06A8ECFCF71D0E0DC2FCC2762
:10121000C16FD06A87CF2C2F26952695277080E244
:10122000289F900111248C2F8370C1E0D0E002C070
:10123000CC0FDD1F8A95E2F7C22BD32BDC6872CF6F
:101240002C2F26952695277080E2289F9001112447
:101250008C2F8370C1E0D0E002C0CC0FDD1F8A95D7
:10126000E2F7C22BD32BDA685DCF8C2F8F710E94EF
:101270004B07C82FD0E0DC2FCC27CC27DF71D06202
:1012800051CF8C2F8F710E944B0755E0D695C79593
:101290005A95E1F7CF70D0E0DC2FCC27282F30E033
:1012A00084FF05C044E0220F331F4A95E1F7C22BAB
:1012B000D32BD06937CF8D2F8F710E944B07182FFA
:1012C000CE0199270E948E07C12FD0E0DC2FCC27BA
:1012D000CC27DF71C82BD92BD2CF80915505811136
:1012E00010925505089580959091540598239093F8
:1012F00054050895209149059091180556E0291349
:1013000002C080E0089530E0529FF001539FF00D3D
:101310001124E75EFA4F7181761306C0708178134D
:1013200003C07281741304C02F5F3F4F2770E7CF53
:1013300081E008958091490590911805981301C0A6
:1013400008958F5F8770FACFB0E0A0E0EAEAF9E095
:101350000C94242D7C010091A3061091A406809189
:10136000560590915705082B192BCFE0D0E0CC24DF
:10137000C394D12CBC2EC6010C2E02C0880F991F1D
:101380000A94E2F780239123892B49F4219790F75F
:10139000B12C8B2DCDB7DEB7E9E00C94402DB70111
:1013A0008C2F0E9430080E944F08019779F3F1CFEB
:1013B000CF93DF93EC010E94A409BE010E94300884
:1013C0000E944F08DF91CF910895983078F58730CB
:1013D00068F5E82FF0E087E0989FE00DF11D1124FB
:1013E0009E2F977083E0F695E7958A95E1F7EE0FCB
:1013F000FF1FEE0FFF1FEA50FB4F50E040E080E080
:10140000219130E0092E02C0369527950A94E2F723
:1014100021703327042E01C0220F0A94EAF7822B91
:101420004F5F5F4F4430510559F7089580E00895AC
:10143000983098F5873088F5E82FF0E087E0989F9E
:10144000E00DF11D11248E2F877041E001C0440F83
:101450008A95EAF783E0F695E7958A95E1F7EE0F2E
:10146000FF1FEE0FFF1FEA50FB4F30E020E070E05F
:101470005191DF011197CB01022E02C096958795FD
:101480000A94E2F7817081958527842385278C93C0
:101490002F5F3F4F2430310559F708959093A406EC
:1014A0008093A306089521E030E002C0220F331F8D
:1014B0008A95E2F7209530958091A3069091A40635
:1014C000822393230E944E0A089590914A058095A5
:1014D000892380934A05282F277091F4282F082EFE
:1014E000000C330B9217130659F09091980592FF58
:1014F00007C08595859585950E94530A10924A05E7
:10150000089521E030E002C0220F331F8A95E2F7F0
:101510008091A3069091A406822B932B0E944E0AE1
:1015200008958091A3069091A406009741F082FF50
:1015300006C083FF04C084E00E94810A089584E00D
:101540000E94530A08959093570580935605089575
:10155000FC0183819481892B29F0808191818923E9
:101560008F3F51F480E00895843FE1F717C0883E33
:10157000A8F0813FB9F712C0808191810E94D809FB
:1015800092959F70963099F358F4925F9F709230C5
:1015900048F7803F19F040F7883E20F781E0089532
:1015A0009A5FF4CF0F931F93CF93DF938B01EA01E0
:1015B00090914306943061F58093E9008FEF90910C
:1015C000E800815095FD06C095ED9A95F1F7000071
:1015D0008111F5CF8091E80085FF1AC00E94250493
:1015E000811111C08091E80085FD06C08091E8005E
:1015F0008E778093E800F2CFF80181918F0180937C
:10160000F100219779F78091E8008E778093E800C8
:10161000DF91CF911F910F91089543E050E0BC01FD
:1016200082E00E94D20A0895CF93DF93EC0148E054
:1016300050E0BC0181E00E94D20A88E0FE01A9E3EB
:10164000B6E001900D928A95E1F7DF91CF91089570
:101650008091260680FD0AC0EBEDF5E01182108234
:101660001282339656E0E632F507C1F7539A3BB142
:10167000377F2BB128604FB7F8948BED95E0FC01D4
:101680005191CF0168E02BB9000000C057FF3BB972
:10169000550F000000C000C000C03BB900C06A95F3
:1016A00091F7F6E086329F0751F74FBF8FE594E040
:1016B0000197F1F700C000000895EF92FF920F9399
:1016C0001F93CF93DF938C01CBEDD5E0F12CE12C70
:1016D000F80194816091280680912706FCE0EF16BE
:1016E000F10404F5992301F1409129064E3208F0E6
:1016F0004DE29E010E9413062FEFE21AF20A239692
:1017000089E1E816F10421F70E94280BF801848191
:1017100090E00196817099278483CDB7DEB7E6E02B
:101720000C94432D992301F39E0140E0E3CFEF9207
:10173000FF920F931F93CF93DF937C01FC01848171
:10174000811109C081E084831092D90592E09093C1
:10175000590480935804CBEDD5E0FE01118210822C
:101760001282339686E0E632F807C1F710E000E017
:101770008091D905082E000C990B08171907C4F1A0
:1017800080915904082E000C990B8017910784F161
:10179000409129064E3208F04DE29E0160912806E4
:1017A000809127060E9413060F5F1F4F2396093171
:1017B0001105F1F60E94280B809158049091D905EB
:1017C000980F9093D90520915904280F209359041C
:1017D000121614F498313CF08195809358048130AE
:1017E00011F4F7011482CDB7DEB7E6E00C94432D77
:1017F000198218821A82D8CFB0E0A0E0E2E0FCE0C3
:101800000C94222DEC018A81BB24BA9480FD02C085
:10181000BB24B3948C81811108C081E0B81259C0F7
:1018200088E18093D80581E08C832BEDE22E25E0C2
:10183000F22E10E000E039E1932EF70111821082C0
:10184000128294E0C92ED12CA12C8091D8058A0D4A
:101850008A310CF441C0692D0E94522D892F082E27
:10186000000C990B80179107A9F4809129068C9D93
:10187000A0018D9D500D112455954795559547957F
:101880004E3208F04DE297016091280680912706BC
:101890000E941306AB0CF1E0CF1AD108B1F60F5F2E
:1018A0001F4F83E0E80EF11C0931110531F60E944B
:1018B000280B8091D80591E0B91217C0811110C092
:1018C00088E18093D8051C82CDB7DEB7EBE00C949D
:1018D0003E2D1092D805A7CF87FFC1CF875EBFCF1F
:1018E00081508093D805BC82EFCF90E00196B8017B
:1018F0000E94742D8093D8058C83E6CFEF92FF92DF
:101900001F93CF93DF93EC018BEDE82E85E0F82E4B
:1019100010E0409129064E3208F04DE28C8197018B
:1019200060912806810F0E941306165F83E0E80E7F
:10193000F11C1A3F71F70E94280B9A818C8190FF4D
:1019400008C08F5F8C83DF91CF911F91FF90EF9044
:1019500008958150F7CF9091260690FF0CC0EBEDD3
:10196000F5E0818360834283339696E0E632F9079F
:10197000C1F70E94280B0895A3E0B0E0E2ECFCE080
:101980000C94292D8C018091DA0581110AC09E01E9
:101990002F5F3F4F4DE26FEF0E9413068A818093C5
:1019A000DA05F8016481613069F08091DA0540E080
:1019B000662361F040E0623011F44091DA0580E086
:1019C00060E004C06091DA0540E080E00E94AB0C6A
:1019D000F801848190E0019663E070E00E94742D2C
:1019E00084832396E4E00C94452DA3E0B0E0EBEF74
:1019F000FCE00C942B2D9091260690FF0DC04E32EA
:101A000008F04DE29E012F5F3F4F0E9413064B816D
:101A100069818A810E94AB0C2396E2E00C94472DE9
:101A2000CF93DF93EC01E6E2F6E0438162818C81A3
:101A30000E94F50C8C818F5F8C83DF91CF9108958C
:101A4000CF93DF93EC01EC81F0E0E955FB4F44913B
:101A5000E6E2F6E0628181810E94F50C8C818F5F65
:101A60008C83DF91CF910895B0E0A0E0EAE3FDE040
:101A70000C94232D7C015B016A018091860501E0B5
:101A800010E08A3010F40AE010E0C1E0D0E0B501C7
:101A9000C701F6010995811104C021960C171D0795
:101AA0002CF4CDB7DEB7EAE00C943F2DCC9F90012B
:101AB000CD9F300D300D112490E080E045E34A9534
:101AC000F1F70000019682179307C1F7E0CF8091EC
:101AD0006405811110C08091D80080618093D80086
:101AE0008AE18A95F1F700C08091D90080FF0AC091
:101AF00081E08093640581E090916405913009F064
:101B000080E0089582E0809364050E9406041092AC
:101B10004306F1CF0E94670D882359F0E0912D060E
:101B2000F0912E06309729F00190F081E02D099573
:101B3000089580E008950F931F930E94670D8823F6
:101B400029F00E9474051F910F9108950E94740559
:101B500000918705109188052091890530918A05AB
:101B6000600F711F821F931FEECF0E94670D8823A5
:101B700019F00E94800508950E949B0DCB010895E5
:101B800060912606669570E04BE050E08DE494E0AD
:101B90000E94F62D892B19F481E08093D6050E94CE
:101BA000B50D9093D0058093CF058091D7058460C3
:101BB0008093D7050895CF92DF92EF92FF926B0149
:101BC0007C010E94FD05B701A60188E090E00E941B
:101BD0003F2EFF90EF90DF90CF900895A3E0B0E00C
:101BE000E4EFFDE00C941C2DE82E562EF42E422E30
:101BF0009091260690FF40C020912706281308C028
:101C000080912806861304C080912906841729F044
:101C10008091D70582608093D705E92FE695AE2F96
:101C2000B0E0AC53BB4F8C918093D5059E7F923032
:101C300039F54F2D8DE28F1508F44DE29E012F5F8F
:101C40003F4F652D8E2D0E9413064B8169818A813D
:101C50000E94AB0CE092270650922806F0922906CB
:101C6000442051F060912606709127068091280645
:101C7000909129060E94DB0D2396E1E10C94382D0A
:101C8000823019F4F0902906E5CF8630D1F1893001
:101C9000C1F18831F9F6E8519E2F9170392EE69501
:101CA000F0E0EE55FB4FE4910E2F10E08BEDC82EC7
:101CB00085E0D82E96E2892E96E0992EB12CA12CA3
:101CC00029E1622E712CC501B3010E94602D8E2D79
:101CD000311015C0860F4F2D9DE29F1508F44DE27F
:101CE0009601652D0E941306A00EB11E83E0C80E5A
:101CF000D11C8C149D0439F70E94280BABCF861B96
:101D0000EACFE22EA7CFE6E2F6E0438124E0421BD1
:101D100008F440E021E0628181810E94EE0D089587
:101D2000E6E2F6E0438124E0420F08F44FEF21E0C1
:101D3000628181810E94EE0D0895E6E2F6E0628103
:101D400021E1621B08F460E021E0438181810E946F
:101D5000EE0D0895E6E2F6E0628121E1620F08F4FB
:101D60006FEF21E0438181810E94EE0D0895E6E24C
:101D7000F6E0818121E0438162818A500E94EE0D6C
:101D80000895E6E2F6E0818121E043816281865F89
:101D90000E94EE0D089580912A06882319F0815043
:101DA00080932A0660912606709127068091280666
:101DB000909129060E94DB0D089580912A068330B8
:101DC00018F48F5F80932A0660912606709127068B
:101DD00080912806909129060E94DB0D089590912C
:101DE000260690FF31C0917081112FC092609093B0
:101DF00026068091D70581608093D705662351F030
:101E000060912606709127068091280690912906F8
:101E10000E94DB0D60912606669570E04BE050E075
:101E20008DE494E00E94F62D892BB1F00E94F60516
:101E300081E08093D20520E0409129066091280638
:101E4000809127060E94EE0D0895843210F096646A
:101E5000CECF880F982BCBCF0E94C00DE9CF8091B9
:101E600026068695815009F483E261E00E94EF0E18
:101E700008958091260686958F5F843208F081E070
:101E800061E00E94EF0E08959091260690FF08C031
:101E90009695981728F0961718F40E94390F089510
:101EA00061E00E94EF0E0895E6E2F6E083E08083B1
:101EB00011828FEF82838DE283831482A5EDB5E0DA
:101EC00012968C911297836012968C936081718127
:101ED000828193810E94DB0D08958554990BBC018A
:101EE000990F880B990B0E94D92F20E030E040E435
:101EF00051E40E94362F9B01AC0160E070E080E06D
:101F000090E40E94FB3020E030E04CED53E40E946E
:101F10008E300895A4E0B0E0E0E9FFE00C942A2DB3
:101F200040916D0550916E0560916F05709170053F
:101F30002FB7F8948091320690913306A091340621
:101F4000B09135062FBF841B950BA60BB70B11E084
:101F500084369105A105B10570F10E949B0D6E5F5D
:101F60007F4F8F4F9F4F69837A838B839C838091B0
:101F7000FA029091FB028F589A4F4091F90250E07B
:101F80004530510510F044E050E0BE016F5F7F4FD7
:101F90000E94102E82E090E00E94A52C182F88232A
:101FA00051F00E94740560936D0570936E058093E7
:101FB0006F0590937005812F2496E3E00C94462DD5
:101FC000A8E0B0E0E6EEFFE00C942B2D85E0E6E221
:101FD000F6E0DE01119601900D928A95E1F780916D
:101FE000D5059091D605A091D7058E839F83A887AC
:101FF00028854091820550918305609184057091F8
:1020000085053FB7F8948091320690913306A091F0
:102010003406B09135063FBF841B950BA60BB70B5A
:1020200084369105A105B10510F4222319F18091A0
:102030000203909103038F589A4F4091010350E09F
:102040004930510510F048E050E0BE016F5F7F4F0E
:102050000E94102E83E090E00E94A52C882369F056
:102060000E947405609382057093830580938405B4
:10207000909385051092D70581E02896E2E00C94B4
:10208000472DEF92FF921F93CF93DF9300D000D0A4
:102090000F92CDB7DEB77B0190E080E00E94A52CC7
:1020A000182F882309F487C04091EC0250E04115B5
:1020B000510511F041E050E06091ED027091EE02A7
:1020C0006F587A4FCE0105960E94102E40916905F7
:1020D00050916A0560916B0570916C052FB7F8946B
:1020E0008091320690913306A0913406B091350666
:1020F0002FBF841B950BA60BB70B84369105A1054A
:10210000B10540F482E795E00E94EF039D818917B5
:1021100009F451C081E090E00E94A52C81111AC001
:1021200010E08091650590916605A0916705B091DA
:102130006805F70180839183A283B383812F0F9079
:102140000F900F900F900F90DF91CF911F91FF9004
:10215000EF9008954091F40250E04530510510F0A1
:1021600044E050E06091F5027091F6026F587A4FAA
:10217000CE0101960E94102E82E795E00E94EF03A7
:102180009D818913CDCF0E9474056093690570937A
:102190006A0580936B0590936C0589819A81AB8168
:1021A000BC818093650590936605A0936705B09305
:1021B000680511E0B6CF8091720590917305A091EA
:1021C0007405B091750589839A83AB83BC83111123
:1021D000E4CFA7CFA0E1B0E0E0EFF0E10C94202D38
:1021E0008E01075F1F4F88E0D8011D928A95E9F79D
:1021F00089EBC82E84E0D82EF12CE12CAA24A394DC
:10220000B12C24EC822E24E0922EF60181916F01F4
:102210008F3F09F442C0F894E82FE295EF70F0E0A8
:1022200021A18F70A50102C0440F551F8A95E2F7C6
:10223000CA01922F982B91A392A18095892382A302
:10224000789400C0EDEBF4E0712C31E021912F3F48
:1022500009F46BC0A22FA295AF70B0E090968C915C
:1022600090E02F7002C0959587952A95E2F780FD42
:102270005CC0832F782A330F8E169F0639F7F6013C
:10228000319780818F3F11F00E94340750EA5A95B0
:10229000F1F7F801EE0DFF1D70828FEFE81AF80AD2
:1022A000A4E0EA16F10409F0B0CF48E050E0B8012C
:1022B0008DE895E00E94032E009741F028E0F80198
:1022C000ADE8B5E001900D922A95E1F700919605F1
:1022D000892B69F181E080935C050E9480059093D1
:1022E0005B0580935A0580915A0590915B050E9489
:1022F0006505059700F110E006561A4F44E050E0DE
:102300006DE875E0C8010E94032EF12C892B51F075
:1023100084E0EDE8F5E0D80101900D928A95E1F7AF
:10232000FF24F39410925C0507C080E0A3CF809156
:102330005C058111D8CFF12C0E94670DE82EE09149
:102340009605882309F47DC019821A821B821C829B
:102350000E2F10E006561A4F809186058A30D8F568
:1023600041E450E1BE016F5F7F4FC8010E94340D10
:10237000882309F455C04AE85FE0BE016F5F7F4FD4
:10238000C8010E94340D882309F44AC040EE5FE082
:10239000BE016F5F7F4FC8010E94340D882309F48E
:1023A0003FC0109286058091950590E044E050E092
:1023B000BE016F5F7F4F86569A4F0E94032E21E029
:1023C00020936305892BF1F4E12C8E2D8F296096E3
:1023D000EDE00C943C2D80915D0590915E050E948E
:1023E0006505843F914008F0BBCF80916305882349
:1023F00059F384E0FE013196DF011D928A95E9F7D9
:1024000010926305E0919505F0E0E656FA4F898158
:102410009A81AB81BC8180839183A283B383D5CF22
:10242000809186058F3F31F08F5F809386058A30DB
:1024300008F4B9CF0E94800590935E0580935D05F6
:10244000D4CFF0E0E656FA4F84E0A2E7B5E0019081
:102450000D928A95E1F782E795E00E94EF03809361
:1024600071058090760590907705A0907805B090E2
:10247000790580915F0590916005A0916105B0910B
:10248000620588169906AA06BB06D1F080925F0500
:1024900090926005A0926105B09262050E94670D5E
:1024A00081110EC00E947405861A970AA80AB90AFB
:1024B0008092870590928805A0928905B0928A053E
:1024C00088E0EAE7F5E0DE01119601900D928A9529
:1024D000E1F780917A058695D0907B05C0907C05C8
:1024E000B0907D05009180051091810510928105C5
:1024F000112309F46ACF10FF0BC0298190912606A1
:1025000020FF1AC091609093260660E00E94EF0EB3
:1025100011FF06C020E04B2D6C2D8D2D0E94EE0D7D
:1025200012FF04C00023A9F00E94C00D13FF4DCF7D
:1025300081E08093D20549CF9E7F909326060E942A
:10254000F6058091D70581608093D7050E94280BFE
:10255000DFCF0E94F605EACF809154059091530594
:10256000892B8093EA0490915505992391F0892B4A
:102570008093EA0420E08CEE94E0FC013191CF01DD
:1025800031112F5FF4E0823F9F07B9F721110E94BC
:102590006D0948E050E06BE475E08AEE94E00E943B
:1025A000032E892BA9F088E0EAEEF4E0ABE4B5E075
:1025B00001900D928A95E1F7E0912D06F0912E069B
:1025C000309731F00280F381E02D8AEE94E0099596
:1025D000089510925405ECEEF4E086E0DF011D92C0
:1025E0008A95E9F790E080E00E94CB0590E080E0DA
:1025F0000E94A605109253050E94AC120895AAE20B
:10260000B0E0E5E0F3E10C942A2D85E496E020911A
:10261000F100FC012193CF01F6E08D349F07B9F75B
:1026200080914606833009F470C0B8F4813009F413
:1026300047C0823009F4B1C08091E80083FF7EC2B8
:1026400080914506909146069A3008F077C2E92FAE
:10265000F0E0EE57FD4C0C94882D8A3009F48CC0C4
:102660008B3009F46FC0893039F78091450681328B
:1026700019F78091490690914A060297E8F68091F1
:10268000E800877F8093E8008091E80082FF38C0EF
:102690009091F3008091F200029731F48091F10063
:1026A000813011F0863021F48091F100809338065A
:1026B0008091E8008B778093E8000E945604BCCF9D
:1026C00080914506813A09F0B7CF8091E800877F75
:1026D0008093E8008091490690914A06892B61F425
:1026E00068E089E396E070E00E9402058091E800CE
:1026F0008B778093E800A0CF60E090E080E0F3CF9C
:10270000809143068111C0CF97CF80914506813AD1
:1027100009F092CF8091490690914A06892B09F0E1
:102720008BCF8091E800877F8093E8008091E8005C
:1027300080FFFCCF80915A048093F1008091E800E3
:102740008E77B9CF80914506813209F075CF80919F
:10275000490690914A06892B09F06ECF8091E800D6
:10276000877F8093E8000E945604809147068093FB
:102770005A040E94E91260CF80914506813209F027
:102780005BCF8091E800877F8093E8000E94560429
:1027900080914806809337064FCF80914506813A55
:1027A00009F04ACF8091E800877F8093E80080910C
:1027B000E80080FFFCCF80913706BECF803899F0CB
:1027C000823809F0BBC1809149068F70873008F0CC
:1027D000B5C18093E9008091EB0085FB882780F9E3
:1027E0001092E90006C08091410690914206911135
:1027F00082609091E800977F9093E8008093F100C9
:102800001092F1008091E8008E7794C1882309F43A
:1028100082C1823009F092C180914706811185C141
:10282000809149068F702FEF280F263008F086C15F
:102830008093E9002091EB0020FF77C1933031F4C1
:102840008091EB0080628093EB006FC19091EB0070
:1028500090619093EB0021E030E001C0220F8A9557
:10286000EAF72093EA001092EA008091EB0088607A
:10287000EACF811163C1109147061F778091E30071
:102880008078812B8093E3008091E800877F80939C
:10289000E8000E9456048091E80080FFFCCF809100
:1028A000E30080688093E30082E0111183E080936D
:1028B000430644C18058823008F040C180914706E9
:1028C000909148068C3D23E09207A1F583E08A832E
:1028D0008AE289834FB7F894DE01139620E03EE048
:1028E00051E2E32FF0E050935700E49120FF03C042
:1028F000E295EF703F5FEF708E2F90E0EA30C0F00E
:10290000C7968D939D932F5F243159F74FBF8091C8
:10291000E800877F8093E8006AE270E0CE010196CC
:102920000E9402058091E8008B778093E80006C141
:10293000C096E7CF4091490650914A06292F332788
:102940002330310509F444C078F52130310509F40C
:102950006FC08BE390E0E9E1F6E02230310509F049
:10296000EDC02091E800277F2093E80020914B06DE
:1029700030914C068217930708F49C0140E0211522
:10298000310509F064C0411162C08091E80082FD08
:10299000C9CF80914306882329F2853019F28091AE
:1029A000E80083FFF2CFBECF21323105A9F12232F8
:1029B000310509F0C3C04115510509F443C0413048
:1029C000510509F0BBC082E390E0E7EAF5E0C9CF2A
:1029D000992781309105C1F0009759F0029709F0CD
:1029E000ADC0E6E6F6E0E4918E2F90E0E6E6F6E094
:1029F00007C0E2E9F6E0E4918E2F90E0E2E9F6E02C
:102A0000009709F49BC0ADCFECE7F6E0E4918E2F80
:102A100090E0ECE7F6E0F4CF4115510571F041305C
:102A2000510509F08BC089E090E0E4E4F6E099CF2D
:102A300082E190E0E4E5F6E094CF89E090E0EBE21B
:102A4000F6E08FCF80E490E0E9EDF5E08ACF809169
:102A50004306882309F466CF853009F463CF80915B
:102A6000E80083FD5FCF8091E80082FD8ECF8091EA
:102A7000E80080FF84CF9091F3008091F20021154F
:102A8000310519F08830910550F041E0089709F0C0
:102A900040E08091E8008E778093E80070CF449109
:102AA0004093F1003196215031090196E8CF8038EA
:102AB00009F044C08091E800877F8093E80080910E
:102AC00044068093F1009ECE811138C010914706D4
:102AD0001230A0F58091E800877F8093E800109382
:102AE00044060E945604112311F084E005C0809131
:102AF000E30087FDFACF81E08093430642E061EC7A
:102B000081E00E94750442E261EC82E00E9475045B
:102B10008091430613C080914706813079F481E0AB
:102B2000933009F080E0809342061092E900809192
:102B3000E800877F8093E8000E9456048091E800B7
:102B400083FF0AC08091E800877F8093E80080912E
:102B5000EB0080628093EB00AA96E3E00C94462D94
:102B6000882321F00E9473090E94AC1208958823E3
:102B700039F090915405982B909354050E94AC1213
:102B80000895882391F19CEF980F913A80F4ECEE30
:102B9000F4E022EF34E09191891303C0DF01119733
:102BA0001C922E173F07B9F70E94AC12089590E2CD
:102BB000980F983050F4877091E001C0990F8A9572
:102BC000EAF7892F0E947309EFCF9BE5980F9330A6
:102BD00028F490E080E00E94CB050895885A8B315C
:102BE00020F490E080E00E94A6050895CF93C82FBE
:102BF0008823B1F08CEF8C0F813A00F5ECEEF4E015
:102C000082EF94E0DF012D91C21761F08A179B07D4
:102C1000D1F76C2F8AEE94E00E948C050E94AC12D2
:102C2000CF9108952191C21303C0DF0111971C9227
:102C30008E179F07B9F70E94AC12EBCF80E28C0F82
:102C4000883068F4C77021E030E001C0220FCA95D7
:102C5000EAF780915405822B80935405DFCFEBE592
:102C6000EC0FE33040F4F0E0E258FB4F808190E05D
:102C70000E94CB05D5CFC85ACB3190F6EC2FF0E0AF
:102C8000EE0FFF1FEF57FB4F808191810E94A60539
:102C9000C7CF1F93CF93DF93182FD0E0C0E08933C5
:102CA00011F4C0E5D0E0812F0E94F615209739F489
:102CB000812F0E94C115DF91CF911F9108958FE957
:102CC0009FE00197F1F700C000002197EFCFB0E03F
:102CD000A0E0EDE6F6E10C94232DEC018AE0A82EAD
:102CE000FE012491222309F497C0213009F03EC04F
:102CF00031968491813031F42296FE0184910E94B4
:102D0000491607C0823039F42296FE0184910E9450
:102D1000F6152196E5CF833031F42296FE01849199
:102D20000E94C115F6CF843009F074C02296FE01CE
:102D3000249190E080E0FE0131962053330B2A303D
:102D4000310548F0019728F3EFE9FFE03197F1F7FB
:102D500000C00000F7CFA89EA001A99E500D11242D
:102D6000C901840F951F2491EF01E5CFE22FF0E018
:102D7000EA53F94FB490822F86958695869590E018
:102D8000FC01EA54F94FE4902770F12C022E02C0A6
:102D9000F594E7940A94E2F731E0E322FF24FC0182
:102DA000EA55F94FC490D12C022E02C0D594C79495
:102DB0000A94E2F7E1E0CE22DD24FC01EA56F94F65
:102DC000049110E002C0159507952A95E2F701706D
:102DD0001127E114F10419F081EE0E94F615C114D7
:102DE000D10419F086EE0E94F6158B2D0E9449162B
:102DF000C114D10419F086EE0E94C115E114F1044A
:102E000019F081EE0E94C1150115110509F481CF59
:102E10008CE275CFEF017DCFCDB7DEB7EAE00C9441
:102E20003F2D0F931F93CF93DF93C62FD42F022FE5
:102E3000FC0182818823A9F060934F060E948005DF
:102E400090934E0680934D06C77081E001C0880FB5
:102E5000CA95EAF70E94B715DF91CF911F910F91A4
:102E6000089580914F06681332C080914D0690916D
:102E70004E060E9465058436910548F510E21D0F47
:102E8000CD17B9F080E28C0F883040F4C77081E034
:102E900001C0880FCA95EAF70E94B015183048F4AF
:102EA00081E09D2F977001C0880F9A95EAF70E94E4
:102EB000B715802F0E944916183070F6D77081E040
:102EC00001C0880FDA95EAF70E94B015C5CFC77028
:102ED00081E001C0880FCA95EAF7F6CF67EE7EEF72
:102EE00090E080E00E944B2E60E082E090E00E9443
:102EF0002D2E60E083E090E00E942D2E1092570569
:102F00001092560560E074E184E090E00E944B2E40
:102F100060E086E090E00E942D2E6FEF87E090E069
:102F20000E942D2E40E050E0BA0188E090E00E941F
:102F30003F2E60E08DE090E00E942D2E40E050E0BA
:102F4000BA0188E190E00E943F2E60E087E190E0C6
:102F50000E942D2E40E050E0BA018CE190E00E94EA
:102F60003F2E70E060E080E290E00E944B2E40E057
:102F700050E0BA0188E190E00E943F2E40E050E02E
:102F8000BA018FE090E00E943F2E40E050E0BA018D
:102F900083E190E00E943F2E089580915E068111AA
:102FA00044C090E080E00E94272E873E9E4F11F0A3
:102FB0000E946E1787E090E00E94192E80935F06B2
:102FC000E2E6F6E080E090E0A0E8BFEB118210823C
:102FD00082839383A483B58317821682389626E072
:102FE000E23AF20799F780915E0681110CC00E94C7
:102FF000A906259A82E0809380008AE1809381006F
:1030000081E080935E060E94050780915F0680FF45
:1030100006C063E070E084E193E00E94C5180E945E
:10302000800590935306809352060895B0E0A0E087
:10303000ECE1F8E10C94202D4B015C017A018091C8
:103040005F0680FF81C080915E06811102C00E94F0
:10305000CD1720E030E0A901C501B4010E94312F55
:1030600087FF04C0B7FAB094B7F8B0947090A20686
:10307000872D8150990B6C01EC01CF3FDC0709F0E3
:103080004DC081E0870D893008F47CC088E08093D2
:10309000A20682E696E028E0FC013896DC01019069
:1030A0000D922A95E1F7089626E08A39920799F75A
:1030B00081E08093C40580935D06C091A206C15053
:1030C000DD0B0E948005FE0123E0EE0FFF1F2A9515
:1030D000E1F7EE59F94F9183808382829382A48233
:1030E000B582F782E6820E94800580914C03882396
:1030F00059F180916F00826080936F008091800011
:1031000080688093800080915D06882321F00E9472
:10311000C2030E94B40610924C0316C08E0133E025
:10312000000F111F3A95E1F70E59194FA5019401AF
:10313000F80162817381848195810E94312F811110
:103140001FC0CC15DD052CF0CDB7DEB7EDE00C943B
:103150003C2D219688E0F8013896D80101900D9217
:103160008A95E1F70E948005F80191878087828621
:103170009386A486B586F786E686085F1F4FE1CF63
:1031800021977BCF8093A20693CFCF92DF92EF92CD
:10319000FF92CF93DF93EC017B0180915F0680FD6E
:1031A00009C00E940507DF91CF91FF90EF90DF905B
:1031B000CF90089580915E06811102C00E94CD17C4
:1031C00080915D0681110E94050781E080935C0675
:1031D00010925B06D0935A06C0935906F092580697
:1031E000E092570610925606109255061092540619
:1031F0006C817D818E819F810E94A82F9B01A0E61A
:10320000BAEE0E94B52EC12C2EE1D22EE12CF12C6B
:10321000A70196010E94932E688179818A819B8102
:10322000A9010E9416180E9480059093530680936E
:103230005206E0915906F0915A06809154069091F9
:10324000550633E0880F991F3A95E1F7E80FF91F0B
:1032500064817581868197810E94A82F9B01A0E6D9
:10326000BAEE0E94B52EA70196010E94932E3093CC
:1032700051062093500697CF81E08093CE0568E0F9
:1032800070E08DE094E00E94C51808950E942C071C
:103290001092CD0568E070E08DEC93E00E94C518B7
:1032A000089581E08093CD0568E070E08DE893E0BB
:1032B0000E94C51868E070E08DE493E00E94C51894
:1032C000089562E070E08CE393E00E94C5182FEF50
:1032D00081EE94E0215080409040E1F700C0000072
:1032E0000E94050760915F066E7F60935F0687E02E
:1032F00090E00E942D2E089560915F0661606093BA
:103300005F0687E090E00E942D2E62E070E08CE284
:1033100093E00E94C5180895CF93DF930E94E912AD
:103320000E942C070E948005EC0163E070E084E0BD
:1033300091E00E94C5182FEF82E597E02150804070
:103340009040E1F700C000000E940507CE010E94F6
:1033500065058A3F910528F00E940507DF91CF910E
:1033600008958FE99FE00197F1F700C00000EECFCC
:103370000E948C1988E19AE00FB6F894A895809382
:1033800060000FBE90936000FFCF0E946D0F4FEF63
:103390005FEF0E9416180895B0E0A0E0E2EDF9E1B9
:1033A0000C94252D6B017C0120E030E0A9010E94E6
:1033B000312F87FF04C0F7FAF094F7F8F09480916A
:1033C0005D06882309F458C080915E06811102C011
:1033D0000E94CD1702E616E0C7E0D0E0A7019601F3
:1033E000F80162AD73AD84AD95AD0E94312F8111AE
:1033F0003CC083E0CC0FDD1F8A95E1F7CE59D94F51
:103400001982188280E090E0A0E8BFEB8A839B835A
:10341000AC83BD831F821E82AC01BD01F6E0CA39B8
:10342000DF0789F4C1E0C093C4058091A2068150F2
:103430008093A206811120C00E94A906C0934C036C
:1034400010925D0619C088E0FE013896DE010190F9
:103450000D928A95E1F7198618864A875B876C87F3
:103460007D871F861E862896D9CF2197085011097F
:10347000CF3FDC0709F0B2CFCDB7DEB7E8E00C9460
:10348000412D9091980592FB222720F9281779F079
:1034900080FB92F99093980560919705709198053B
:1034A00084E090E00E944B2E82E00E94650A08951D
:1034B000A8E2B0E0EEE5FAE10C94212D7C01DC01FC
:1034C00013968D919C911497892B41F08C911196B4
:1034D0009C9189238F3F11F00C94B422A896ECE0C4
:1034E0000C943D2D0E94A409182F682F89819A8180
:1034F0000E94180A69817A81812F0E9430088C010C
:103500008A38B4E79B07A9F5F7018281882361F027
:1035100080915F06682F6D7F81FF626060935F0618
:1035200087E090E00E942D2E0E38A4E71A0709F0DC
:103530006CC0D70112968C91882309F466C029E0EB
:1035400038E348E95FE3609134017091350180917F
:103550003601909137010E94362F4B015C0120E02B
:1035600030E042E852E40E94893018160CF04DC059
:103570002CC08B38F4E79F0789F18C3824E7920739
:10358000B9F18F38944709F4EBC00D38B4E71B0745
:1035900059F6F70182818823C1F129E038E348E92F
:1035A0005FE3609134017091350180913601909113
:1035B00037010E948E304B015C0120E030E84BEB7C
:1035C00054E40E94312F87FF20C0809234019092F2
:1035D0003501A0923601B092370117C0D70112967B
:1035E0008C91882309F4A0CF60915F06626096CF2A
:1035F000F7018281882349F060915F066D7F6093B7
:103600005F0687E090E00E942D2E80915F06982F44
:103610009370933009F0B7C0F7019281992309F4B0
:10362000B2C09801205834472230310508F4B1C7A0
:103630009091CD0591116CC09091CE05911168C00B
:1036400080FF66C060913401709135018091360130
:10365000909137019B01AC010E94C52E4B015C018A
:103660000E94E62DBC01990F880B990B0E94D92F5F
:1036700020E03EEF4FEF56E40E94362F2DEC3CEC5D
:103680004CE45DE30E948E3020E030E040E85FE3F0
:103690000E94C52EA50194010E948E3060932401E2
:1036A0007093250180932601909327010E94E62DB7
:1036B000BC01990F880B990B0E94D92F20E03EEF97
:1036C0004FEF56E40E94362F2DEC3CEC4CE45DE3CA
:1036D0000E948E3020E030E040E85FE30E94C52E7B
:1036E00020913401309135014091360150913701DC
:1036F0000E948E3060932C0170932D0180932E01D7
:1037000090932F0163E070E08CE191E00E94C51876
:103710000634EEE71E0709F41EC108F04DC7013458
:103720002EE7120709F4BFC008F039C7013248E795
:10373000140709F4FAC000348EE7180709F48DC0A5
:103740000238F4E71F0709F052C1D70112968C9195
:10375000882309F4CFC180915F0680FD45C134C044
:10376000D70112968C91882309F44FCF80E090E026
:10377000ACEDB3E48093340190933501A09336010E
:10378000B093370142CF0634FEE71F0709F4E3C0C8
:1037900090F501343EE7130709F485C0C0F4013207
:1037A00088E7180709F4C1C000349EE7190709F437
:1037B00054C00038B4E71B0709F00CC1D7011296BA
:1037C0008C91882309F496C10E947C1959C0033456
:1037D000AEE71A0709F491C008F478C00434EEE7A4
:1037E0001E0739F7F7018281882309F49AC084E023
:1037F0000E94810A45C00934FEE71F0709F4D0C0C2
:10380000C8F407343EE7130709F4BAC008344EE79A
:10381000140779F6F7018281882391F10E94540FF1
:103820008091260681608093260661E086950E943D
:10383000EF0E88C00B348EE7180709F4C2C008F4F5
:10384000B8C00C34AEE71A0709F0B3CFF701828194
:103850008823B1F08EE291E08CC0F7018281882349
:1038600079F064E070E088E691E00E94C51861E0BC
:1038700083E090E00E942D2E81E090E00E94A30A58
:1038800080914A05877009F429CED70112968C9150
:10389000882309F423CE8091980582FF1FCE82E011
:1038A0000E94650A1BCED70112968C91882341F3A2
:1038B00066E070E088E391E00E94C51862E083E072
:1038C00090E00E942D2E82E090E0D8CFF701828117
:1038D000882359F08091F204811103C081E0809324
:1038E000F20482E00E94810A05C01092F20482E094
:1038F0000E94530A0E94910AC3CFD70112968C915D
:10390000882349F08091F204811103C081E0809303
:10391000F20483E0E7CF83E00E94530A1092F2049E
:10392000E9CF84E00E94530AABCFD70112968C9165
:10393000882309F4A5CF61E080918B050E94EF0EEA
:103940000E94390F80912606869590E090938C0511
:1039500080938B0595CFF7018281882369F0809150
:10396000970582FD04C088E80E94F61589CF88E596
:1039700091E00E94671684CF88E80E94C11580CF2D
:10398000D70112968C91882349F08091970582FD8A
:1039900002C087E8E9CF80E591E0EBCF87E8EDCF83
:1039A000D70112968C91882309F46ACF88E491E0BC
:1039B000E0CFF7018281882309F462CF80E491E0AF
:1039C000D8CFD70112968C91882309F459CF87E379
:1039D00091E0CFCF0138B4E71B0709F0B1CEF70172
:1039E0008281882309F486C00E94611949CFC801E9
:1039F00084599447029770F4F7018281882309F46F
:103A000079C01092610664E070E088E891E00E945D
:103A1000C51836CF0039F4E71F0749F4D7011296CD
:103A20008C91882309F466C00E94511929CF01396D
:103A3000B4E71B0741F4F7018281882309F45AC0D7
:103A40000E9446191DCF0239F4E71F0759F48091EF
:103A5000CD05D70112969C91992309F44BC0811191
:103A6000EFCFE2CF0115B1E71B0741F4F7018281E7
:103A7000882309F43FC00E943C1902CF0130F1E7CE
:103A80001F0761F4D70112968C91882399F1109247
:103A9000CE0568E070E088EA91E0B9CF0230B1E786
:103AA0001B0749F4F7018281882321F18091CE051B
:103AB0008111EDCFE0CF0339F4E71F07D9F4D70127
:103AC00012968C918823B1F00E942C0720918802D5
:103AD00030E02F5F3F4F237033272093880248E266
:103AE000429FC001439F900D112465E070E0885112
:103AF0009E4F8DCF2091CD0521110FC08091CE0515
:103B000081110BC0F801E851FC47E730F10508F0DE
:103B1000EBC0E457FD4C0C94882DF7013281332320
:103B200009F44AC0003E110561F40E942C0781E0AF
:103B30008093F4041092F3041092BF051092BB0519
:103B40009FCE023E110571F40E942C078091F4046F
:103B5000882319F081E08093F3041092F40410920A
:103B6000BF058ECE033E110591F48091F3048823A6
:103B700019F10E942C071092F40481E08093BF0594
:103B80001092BC051092BE051092BD0579CE8091B1
:103B90001203909113030A970235110541F0013584
:103BA000110551F480911203909113030A9690939A
:103BB00013038093120364CE8091880281112AC07E
:103BC000D70111964C91119788E090E0841B9109E0
:103BD000DC90B0E1DB0EECE08E9FD00C112433239F
:103BE00009F45BC0222319F08D2D0E94C519809124
:103BF000F404882351F08091BB05E82FF0E0E555EF
:103C0000FA4FD0828F5F8093BB050F3F110508F0FC
:103C100079CF36CE813081F4D70111964C9111972E
:103C200088E090E0841B9109D82EDD0CDD0CD80EC5
:103C30008C918D5CD80ED3CF823071F4F701418125
:103C400088E090E0841B9109D080F3E3DF0E47E029
:103C5000849FD00C1124C3CF4CE0D42E833009F0C4
:103C6000BECF83E2EBE5F4E0DE01119601900D9208
:103C70008A95E1F7D701EC91EC0FFD2FF11D11961C
:103C80004C9188E090E0841B9109D084BCE08B9F2C
:103C9000D00C1124E9E0DE0EA2CF222309F4B5CF27
:103CA0008D2D0E946D0F0E94CC19AFCF26E241EE00
:103CB00061EEC7010E941117E3CD27E245EE65EEE4
:103CC000F8CF26E241EE60EEF4CF27E245EE64EE57
:103CD000F0CF26E241EE62EEECCF27E245EE66EE53
:103CE000E8CF28E241E0EBCFD70112968C918823F0
:103CF00009F480C410924F06C8019057839708F0CA
:103D0000F1C084E090E00E94272E90939805809364
:103D10009705F801E150F047E232F10520F4ED5645
:103D2000FD4C0C94882D80919705816080939705B8
:103D300037C08091980588608093980531C0809144
:103D400097058260F3CF809197058460EFCF8091D3
:103D500097058860EBCF809198058160EDCF8091C9
:103D600098058260E9CF809197058061DFCF8091CF
:103D700097058062DBCF809197058064D7CF0E9442
:103D8000E912809197058068D1CF809197058C606A
:103D90008093970564E070E089EC92E00E94C5187A
:103DA000609197057091980584E090E00E944B2EF9
:103DB0000E94E91265CD80919805836080939805F3
:103DC00064E070E089EA92E0E9CF809197058E7F08
:103DD000ADCF80919805877FAFCF809197058D7F7C
:103DE000A5CF809197058B7FA1CF80919705877F85
:103DF0009DCF809198058E7F9FCF809198058D7F74
:103E00009BCF809197058F7E91CF809197058F7D75
:103E10008DCF809197058F7B89CF0E94E912809189
:103E200097058F7783CF80919705837F8093970540
:103E300062E070E089E992E0B1CF809198058C7FD3
:103E40008093980562E070E089E892E0A7CF8091C6
:103E5000970582FB992790F921E0922790FB82F940
:103E600090FB83F98093970583FFE2CF93CF8091F6
:103E70009805982F909591708E7F892B90FB81F9F2
:103E80008093980581FFDECF9BCF90919705892F76
:103E90008F7B96FF80644ACF0E94E912909197052C
:103EA000892F97FB87F9805841CF61E08EE090E041
:103EB0000E942D2E75CF60E0F9CF90919705892F44
:103EC0008F7E94FF806132CF90919705892F8E7FEE
:103ED00090FF81602BCF90919805892F877F93FF6A
:103EE00088602ACF0631BCE71B0709F091C080919A
:103EF00054058A7A91E009F490E09093F50469E220
:103F0000811165E38AEE94E00E948C050E94AC1258
:103F1000B7CC85E3ECEEF4E09191891303C0DF01A7
:103F200011971C9224E0E23FF207B1F7EFCF8091A6
:103F3000260680FF17C08E7F809326066091260696
:103F40007091270680912806909129060E94DB0D2A
:103F50000E94F6058091D70581608093D7050E9465
:103F6000280B8ECC81608093260661E086950E94A6
:103F7000EF0E86CC4FE25FE069E37FE00E94F00540
:103F80007FCC49E35FE06FE27FE0F8CF47EB5EE094
:103F900061EC7EE0F3CF41EC5EE067EB7EE0EECFDC
:103FA0004DE95EE06AEA7EE0E9CF4AEA5EE06DE96B
:103FB0007EE0E4CF43E85EE060E97EE0DFCF40E909
:103FC0005EE063E87EE0DACF4BEC5EE06DED7EE034
:103FD000D5CF4DED5EE06BEC7EE0D0CF61E081E0CF
:103FE000C6CF65E082E00E94440F4ACC68E086E0DC
:103FF000FACF6EE089E0F7CF64E18FE0F4CF67E1BC
:1040000085E1F1CF61E288E1EECF61E082E2AFCFFE
:1040100003303CE7130709F47DC008F05AC00115CE
:104020008CE7180709F463C001301C4709F478C015
:10403000F701828100811181882309F47FC0C801C2
:104040000E94A409D82E682FC8010E94180AB8013E
:104050008D2D0E9430080E944F088C01882ED701B8
:104060001296DC9012971596BC90B2943FE0B32262
:1040700080914A058770F1F0AD2CDD20E1F0812FB1
:10408000807F803451F080E2800F883098F0B1104A
:1040900004C0812F807E803269F08091980582FF74
:1040A00009C082E00E94650A80914A058770AA24AF
:1040B000A3948111A12C912E92942FE09222BBE027
:1040C000B91508F4AAC0E92DF0E0EB54FD4C0C94AE
:1040D000882D0B35ACE71A0779F10C35BCE71B07C7
:1040E00009F10A351C4709F0A3CF81E022C00E94E4
:1040F0008C1987E797E7909301088093000888E17F
:104100009AE00FB6F894A895809360000FBE909344
:104110006000FFCF6FEF7FEF90E080E00E944B2EBA
:104120000E94B8198091980582FB882780F991E058
:1041300089270E94411A7CCF80E0FBCFC8010E94F2
:10414000E509D82E84CFE12FEF70CE2E107F19F025
:10415000C29490EFC922DD20B9F0CC2069F080E252
:10416000800F883010F0811009C080915405C82A52
:10417000C09254050E94AC12802F4DC0809153050F
:10418000C82AC0925305F6CF802F0E94C115CC20BB
:1041900009F443C0005E083010F0811004C08C2D7B
:1041A0000E94730906C0C09480915305C822C09232
:1041B00053050E94AC1231C0F12FFF70CF2E107F3B
:1041C000103219F0C29480EFC8228820A1F021E0BB
:1041D000821609F47FC0DD2009F489C0BB2009F4F0
:1041E0007FC0D70115968C91159780FFC5CF8F7032
:1041F00015968C9375C02091980522FD43C0DD2053
:10420000D9F1CC2039F080915405C82AC0925405C8
:104210000E94AC1280E00E94F615A92DA850BB0B9D
:10422000149710F40E948A0DAA20A9F080914A05E3
:1042300080FD11C0F70112828595859585950E94B4
:10424000810AC7010E94581A80914A058595859573
:1042500085950E94530A85E0F701DE01949601904E
:104260000D928A95E1F70CA11DA1C8010E94E509F4
:10427000B8010E94300832C980E00E94C115CC20EC
:1042800061F28DCFDD20A1F0909155058C2D892B09
:10429000B11003C00E94B715C0CF31E0B312FACFFE
:1042A00022FFBBCF981709F4B8CF80935505B5CF3F
:1042B000B11006C00E946D098C2D0E94B015ADCFC3
:1042C00041E0B41609F4A9CF8C2D0E94B0150E94CC
:1042D0006D09A3CFDD2031F085E08B1508F49DCF6B
:1042E0008C2DD8CF94E09B1508F497CFE5CFBB2059
:1042F00019F3B9E38B1209C0EFEFF7EE23E0E150B9
:10430000F0402040E1F700C00000802F0E94C1155E
:1043100084CF812F86958695837061F0813009F076
:104320007CCFC8019370D11002C080E090E00E9461
:10433000A60573CFC8019370D11002C080E090E051
:104340000E94CB056ACF812F837009F03FC0D11046
:1043500064CF402F429546954770440F440F802FFD
:104360008F7090E0042E02C0880F991F0A94E2F724
:1043700030E020E004FF09C02FE030E002C0220F4F
:10438000331F4A95E2F720953095169516951370D0
:10439000123099F078F4409156055091570511303C
:1043A00039F0822B932B842395230E94A30A35CFC7
:1043B000842B952B822B932BF8CF822B932B209140
:1043C00056053091570582279327EFCF8695DD203C
:1043D00011F0812F8170882309F41FCF402F42955F
:1043E00046954770440F440F802F8F7090E0042E45
:1043F00002C0880F991F0A94E2F730E020E004FF22
:1044000009C02FE030E002C0220F331F4A95E2F7C7
:1044100020953095169516951370123099F078F412
:104420004091A3065091A406113039F0822B932BB2
:10443000842395230E944E0AF0CE842B952B822B49
:10444000932BF8CF822B932B2091A3063091A406B7
:1044500082279327EFCF1F70DD2029F0812F0E9444
:10446000810A802F17CF802F0E94B015812F0E94C4
:10447000530AD3CE802F32EF831699F1381570F09E
:1044800040EF8416D1F091EF891691F0DD2009F408
:104490005BC0B11071CE812F8F7127C0A3EF8A1638
:1044A00039F1B4EF8B12F2CF8091980582FD2EC0C6
:1044B000812F8F71DD20D9F218C0DD2069F0E4E092
:1044C000EB1508F4AACE1F7181E090E002C0880FBE
:1044D000991F1A95E2F7B8CFF5E0FB1508F49DCEC9
:1044E000F2CF812F8F71D110C2CF0E94810A95CE59
:1044F00090E080E0DD2009F49DCF1F7181E090E025
:1045000002C0880F991F1A95E2F794CFDD2089F039
:104510001F71812F0E94810A8091980582FF07C038
:1045200028E0129FC0011124836080934A05812FE7
:10453000DCCF81E00E94650A31E03B1508F06DCECA
:1045400082E00E94650A69CEBB2059F0893309F0E8
:10455000DCCE4FEF87EE93E0415080409040E1F792
:10456000D2CE812F8F7183CF85E0F701DE011196C6
:1045700001900D928A95E1F7D70112962C918981CD
:104580009A8121110C94721A0E94E509182F0C943B
:104590007A1A0038B4E71B0709F026CA15C9033494
:1045A0009EE7190709F4A9C908F490C90434BEE7C5
:1045B0001B0709F417C9C4C80934EEE71E0709F43C
:1045C000EFC958F407342EE7120709F4D9C90834A3
:1045D0003EE7130709F41EC9B3C80B344EE71407AE
:1045E00009F4EFC908F4E5C90C349EE7190709F48A
:1045F0002DC9A6C80631FCE71F0771F0809154054C
:104600008272F801E052F847E531F10508F010CD6B
:10461000EF53FD4C0C94882D8091F504811179CCD9
:1046200089E278CC1F93CF93DF9380911705807F29
:1046300009F04BC080911405882309F446C080918D
:104640004905C091180540911205509113056091DC
:10465000150570911605D42FD52316E0C817A9F1BA
:1046600090E061157105A9F1DF3F99F1189FF00104
:10467000199FF00D1124DF01A75EBA4F11962C91FE
:104680001197251326C02C91241323C012962C9128
:10469000129721111EC013962D913C91261B370BAA
:1046A00024363105B0F4809117058F7080618093B6
:1046B0001705E25EFA4F80818F708061808382E10E
:1046C00095E00E94581A0E949A09DF91CF911F919C
:1046D000089501968770C2CFA1E1B0E0E2E7F3E26E
:1046E0000C94212D8C0185E0F801DE011D960190CE
:1046F0000D928A95E1F7F801E28082E1882E85E04B
:10470000982E40911505509116054115510509F453
:1047100021C19091120520911305892F82238F3F8B
:1047200009F418C1D080C180A380B480F090140532
:10473000B501641B750BFF2009F4F3C080911705C8
:10474000382F307F6436710508F0B7C0311178C05A
:10475000FE2C2C1114C09D1112C0E11010C08F70DE
:10476000806180931705C4010E94581A8091170533
:10477000F80185838F2D6196ECE00C943D2DA114FA
:10478000B104C9F18D2D8C218F3FA9F181E08E25D7
:1047900080FF05C04E2D6C2D8D2D0E947A09A1142D
:1047A000B10459F18D2D8C218F3F39F181E08E2597
:1047B000F82FF170BF2E80FF39C04E2D6C2D8D2D3E
:1047C0000E947A09A82E811131C0DD86CE868D85A2
:1047D0009E850E94D809292F22952F70243078F4C5
:1047E0009F702230A8F09923B9F0F8019581907F4D
:1047F00099F4FA2CBFCF80E0CBCF80E0D9CF2A5FED
:104800002F70223068F0C8010E94581AAB2CF1CFEB
:10481000992311F0882369F3805E883050F3F3CF39
:10482000803F38F3815F833070F7E3CFEE2009F4E7
:10483000A1CF80911705816080931705F12C9ACF45
:104840002C1111C09D110FC0E1100DC08583C8014E
:104850000E94581A86E0F801A2E1B5E001900D929D
:104860008A95E1F787CFC8010E94A80A882309F139
:10487000EE20F9F080911705803270F0209112053A
:104880003091130538872F831986BB86AA868C87BB
:10489000CE0107960E94581A86E0F801A2E1B5E021
:1048A00001900D928A95E1F70E941223FF24F39460
:1048B00061CFC8010E94581AF9CF31110AC082E1B4
:1048C00095E00E94581A86E0F40111928A95E9F762
:1048D000B5CF2C110EC09D110CC0E1100AC085830C
:1048E000C8010E94581A86E0F40111928A95E9F7EE
:1048F00041CFC8010E94A80A8823D9F2EE20C9F24C
:1049000080911705803240F22091120530911305F5
:104910003A8329831B82BD82AC828E83CE010196AD
:10492000B9CF64367105F8F6FE2CEE2011F22C1189
:1049300003C09D1509F48ECFC8010E94A80A8111F9
:10494000ABCF80911705816080931705C8010E9445
:10495000581A10CFEE2009F4ACCFC8010E94A80A63
:10496000F82E882309F4A5CF86E0F801A2E1B5E08E
:1049700001900D928A95E1F78091120590911305AF
:104980000E94D8090E941223F5CEA7E1B0E0EBEC1B
:10499000F4E20C942A2D4B8B5C8B6D8B7E8B8F8B72
:1049A0006111109253051A8A198A85E0FE017396E7
:1049B000DE011D9601900D928A95E1F786E0FE01D9
:1049C0003D96DE01179601900D928A95E1F7CE0192
:1049D00007960E946C23882359F016E080914905C0
:1049E00090911805891343C06796E3E00C94462D17
:1049F00086E0FE013796DE01119601900D928A95B0
:104A0000E1F78A859B85892B41F38F8198858923DE
:104A10008F3F19F32091180530E0C9010196877086
:104A20009927409149054817190671F40E94E91227
:104A3000109218051092490586E0E2E1F5E0DF01E9
:104A40001D928A95E9F7C9CF96E0929FD001939F76
:104A5000B00D1124A75EBA4FFE01319601900D9260
:104A60009A95E1F7809318050E949A09B6CF819F25
:104A7000C0011124875E9A4F0E946C23882309F499
:104A8000B3CF8091490590E0019687709927809374
:104A90004905A4CFA5E0B0E0E0E5F5E20C94292DAE
:104AA0000E9480058C0180915805909159058017CE
:104AB0009107A1F08FEF89838A831B820E94800572
:104AC0008160782F9D838C8349815A816B818D8190
:104AD0000E94C52410935905009358052596E4E0DB
:104AE0000C94452D1F920F920FB60F9211242F9305
:104AF0003F934F935F936F937F938F939F93AF9366
:104B0000BF93CF93DF93EF93FF93D091E900DF70D2
:104B10008091EC00C82FC17080FDC0E81092E900C0
:104B20008091F000877F8093F00078940E94FF12BC
:104B30001092E9008091F00088608093F000CD2B06
:104B4000CF70C093E900FF91EF91DF91CF91BF91BA
:104B5000AF919F918F917F916F915F914F913F9115
:104B60002F910F900FBE0F901F9018951F920F92CC
:104B70000FB60F9211242F933F934F935F936F9330
:104B80007F938F939F93AF93BF93EF93FF93809106
:104B9000E10082FF09C08091E20082FF05C08091A0
:104BA000E1008B7F8093E1008091DA0080FF24C0D8
:104BB0008091D80080FF20C08091DA008E7F8093A2
:104BC000DA008091D90080FF9DC080E189BD82E13B
:104BD00089BD09B400FEFDCF81E08093430680913A
:104BE0003606811109C00E9406040E94A704809124
:104BF000E20084608093E2008091E10080FF17C0B2
:104C00008091E20080FF13C08091E2008E7F80934C
:104C1000E2008091E20080618093E2008091D80000
:104C200080628093D80019BC85E080934306809110
:104C3000E10084FF2BC08091E20084FF27C080E167
:104C400089BD82E189BD89B5982F917080FFFBCF26
:104C50008091D8008F7D8093D8008091E1008F7E75
:104C60008093E1008091E2008F7E8093E20080914A
:104C7000E20081608093E20080914406882309F479
:104C800047C084E080934306809143068091E10011
:104C900083FF27C08091E20083FF23C08091E10061
:104CA000877F8093E10082E0809343061092440660
:104CB0008091E1008E7F8093E1008091E2008E7F01
:104CC0008093E2008091E20080618093E20042E004
:104CD00060E080E00E9475048091F000886080931D
:104CE000F000FF91EF91BF91AF919F918F917F91D4
:104CF0006F915F914F913F912F910F900FBE0F9049
:104D00001F90189519BC109243061092360674CF66
:104D10008091E30087FD93E090934306B5CF7894AC
:104D20001F921FB61F9211248F939F93AF93BF932F
:104D30008091320690913306A0913406B0913506E9
:104D40000196A11DB11D8093320690933306A09366
:104D50003406B0933506BF91AF919F918F911F900C
:104D60001FBE1F9018951F921FB61F9211248F937C
:104D70009F93AF93BF9380913106811113C08091AF
:104D8000320690913306A0913406B09135064196D3
:104D9000A11DB11D8093320690933306A093340673
:104DA000B0933506BF91AF919F918F911F901FBE19
:104DB0001F9018951F920F920FB60F9211247F9299
:104DC0008F929F92AF92BF92CF92DF92EF92FF921B
:104DD0000F931F932F933F934F935F936F937F9303
:104DE0008F939F93AF93BF93CF93DF93EF93FF93F3
:104DF0008091C9059091CA05A091CB05B091CC05D1
:104E00000196A11DB11D8093C9059093CA05A09379
:104E1000CB05B093CC056091C9057091CA0580910E
:104E2000CB059091CC050E94D72F6B017C0120E02F
:104E300030E040E85CE36091C5057091C605809163
:104E4000C7059091C8050E948E309B01AC01C70137
:104E5000B6010E94312F87FDB2C01092C905109291
:104E6000CA051092CB051092CC0570905C0680911B
:104E70005D06811103C0772009F497C00E94800568
:104E80006C0171101DC0712C80915D06882379F032
:104E9000809160068111782EC2E6D6E010E000E035
:104EA0008091A2068017110611F00CF007C18091C5
:104EB000C405882309F479C01092C405782E75C002
:104EC0000091520610915306C8010E946505C091D9
:104ED0005006D09151068C179D07A8F2C8010E9478
:104EE00065057C01EC1AFD0AD0925306C092520669
:104EF0008090540690905506E4012196D093550673
:104F0000C09354060E948005C0905706D090580662
:104F1000CC15DD0548F080915606882309F442C07F
:104F200010925506109254060091590610915A0697
:104F3000C0915406D091550680915B065E0163E0F6
:104F4000AA0CBB1C6A95E1F7811157C0F40153E02C
:104F5000EE0FFF1F5A95E1F7E00FF11FD801AA0DE0
:104F6000BB1D2D913D914D915C916081718182813C
:104F700093810E94312F811140C081E080935B06B4
:104F80004FE050E060E070E0CB010E941618909274
:104F90005506809254068FE090E0909351068093DE
:104FA000500672CF0E940507712C80915D06811119
:104FB0009DC080915C06811199C00E94A906FF9155
:104FC000EF91DF91CF91BF91AF919F918F917F91A1
:104FD0006F915F914F913F912F911F910F91FF9092
:104FE000EF90DF90CF90BF90AF909F908F907F9089
:104FF0000F900FBE0F901F90189510925B06F8014E
:10500000EA0DFB1D64817581868197810E94A82F1E
:105010009B01A0E6BAEE0E94B52E20E03EE140E002
:1050200050E00E94932E81E0C81AD108812C4EE1F5
:10503000942EA12CB12C2E153F05F0F0D0935506DF
:10504000C0935406E216F306A8F5C9018E199F090C
:105050007C0183E0CC0FDD1F8A95E1F7C00FD11FE3
:10506000688179818A819B81A7010E941618F0923C
:105070005106E092500608CFCC15DD05F8F6E21A8D
:10508000F30A2196FE0123E0EE0FFF1F2A95E1F7B8
:10509000E00FF11F64817581868197810E94A82F9E
:1050A0009B01A0E6BAEE0E94B52EA50194010E94D4
:1050B000932EC1CFEE24E394F12CCBCFEE80FF8072
:1050C000C70101978E3F9F4F68F4888199810E94A4
:1050D00065058E159F0530F06A817B818C819D81ED
:1050E0000E94CC190F5F1F4F2896DACE772009F463
:1050F00066CF0E94C2030E94B40661CF00D000D0E8
:105100000F92CDB7DEB785B7806885BF85B7806859
:1051100085BF84B7877F84BF0FB6F894A895809128
:105120006000886180936000109260000FBE80E88C
:1051300090E00FB6F89480936100909361000FBEE9
:1051400082E397E09093E9048093E8040E940604C8
:105150000E94A7048091E20084608093E20078942A
:10516000809143068823A1F01091E9001F7090916F
:10517000EC00892F817090FD80E8182B1092E900D7
:105180008091E80083FD0E94FF121F701093E900D8
:1051900082E084BD93E095BD9AEF97BD80936E0049
:1051A00010928705109288051092890510928A0541
:1051B0000E94670D809309030E94670D81110E9470
:1051C000B92B809109038091090394E0811190E04B
:1051D0009093960584E0891B8093950584E90E944D
:1051E000340786E60E94340787E90E94340786EC7C
:1051F0000E9434070DEB14E084ECE82E84E0F82ED6
:10520000D8018D918D018F3F11F00E943407E01677
:10521000F106B1F788E0EAE9F5E0DF01282F1D92F9
:105220002A95E9F7EDE8F5E0DF011D928A95E9F7A7
:105230000E94670DBFEFE0E7F2E0B150E040F040C0
:10524000E1F700C0000080912606869590E09093DB
:105250008C0580938B0590E080E00E94272E873E8E
:105260009E4F11F00E946E1782E090E00E94192E6E
:105270008093A20584E090E00E94272E90939805E9
:105280008093970583E090E00E94192E90E00E94A1
:10529000A30A0E94CD178091990581113BC090E02F
:1052A00080E00E94272E873E9E4F21F00E946E17BD
:1052B0000E94540F88E090E00E94212E6093260601
:1052C0007093270680932806909329068091D7052E
:1052D00083608093D7056E7F71F40E94540F88E03D
:1052E00090E00E94212E60932606709327068093FB
:1052F0002806909329060E94FD050E94F6058091DC
:10530000260680FF04C060E086950E94EF0E81E0D3
:10531000809399050E94670D811102C00E94BC2BE9
:105320008AE093E090932E0680932D06F8E1EF2E0D
:10533000F12CA0E46A2EB2EACB2EB5E0DB2E10E110
:10534000712E8091430612E1853009F480C00E94DD
:10535000EA1003EA15E0EAE9AE2EE5E0BE2ED5013B
:10536000F80191918D9125E0EB3AF20709F479C0AB
:105370009817B9F30E94670D282E912CD5018D90B6
:105380005D01F80131908F01381429F13824512C36
:1053900044244394842D8321B1F02220A1F059822A
:1053A0009A8291E0842D882109F490E09B830E94E9
:1053B00080058160782F9D838C8349815A816B8120
:1053C0008D810E94C5245394440CF7E05F12E2CF14
:1053D000F80131978082939428E09212CFCF0E94F7
:1053E000740543C080914306843019F10E9405077B
:1053F000109231060FB6F894A895E09260000FBEA7
:105400006092600083B7817F846083BF83B78160CF
:1054100083BF7894889583B78E7F83BF0FB6F89447
:10542000A895809160008861809360001092600070
:105430000FBE80914206882351F00E94EA10EAE9EB
:10544000F5E08191811125C1CE16DF06D1F780915B
:105450004306853009F4C6CF0E94E9120E948A0DE6
:1054600076CF981387CF0E944A250E94670D882324
:1054700019F18091BF058823F9F08091BD059091C5
:10548000BE05009781F40E9480059093BE0580932D
:10549000BD058091BC05282F30E0882309F481C028
:1054A000C901019782C00E946505209112033091C5
:1054B00013032817390738F38091D605882309F498
:1054C00064C08091D505E0912606E695E81BE0933F
:1054D000D105823009F08CC0F0E0E256FC4FE49137
:1054E0000E2F10E070E2A72E7DE0B72E8091D2053E
:1054F000882361F01092D2050E94B50D9093D005DB
:105500008093CF051092D4051092D3050E94B50D5B
:10551000E091CF05F091D0059C012E1B3F0B2F3F52
:105520003F4798F52091C2052223B1F01092C205A1
:105530002091C0053091C105821B930B8F3F9F477F
:1055400058F4205D3A483093C1052093C0058091FE
:10555000D70588608093D7058090D3059090D405B7
:10556000E00FF11FF093D005E093CF058FEC95E0AD
:10557000F50109958091D3059091D405892B29F4E3
:10558000892819F081E08093C2050E948A0D9091CC
:10559000C305891709F4D5CE8093C3050E9474050D
:1055A000D0CE8091BB058150990B4091CD0544230D
:1055B00099F025553A4FD9011C9185559A4FFC0118
:1055C00080810E946D0F0E94CC198091CD058823A7
:1055D00019F0812F0E94C5198091BC0590E00196B9
:1055E0006091BB0570E00E94742D8093BC0564CF70
:1055F000863059F4F0E0E556FC4FE4910E2F10E0B0
:1056000060E1A62E6DE0B62E71CF893061F4E6958B
:10561000F0E0E856FC4FE4910E2F10E05EE7A52E77
:105620005CE0B52E63CF8F3061F4E695F0E0EB5689
:10563000FC4FE4910E2F10E04CEFA42E4BE0B42E63
:1056400055CF853159F4F0E0EE56FC4FE4910E2F22
:1056500010E037E9A32E3BE0B32E48CF823249F465
:10566000E0E9F3E0059114912CEBA22E2CE0B22E90
:105670003DCF04EF11E09DE5A92E9BE0B92E8332CA
:1056800009F434CF00ED17E080E6A82E85E0B82EAF
:105690002DCF79BC19BD09B400FEFDCF8091D80093
:1056A0008F7D8093D8008091E00082608093E0003D
:1056B0008091E00081FDFCCF0E94E912C8CE8EE10E
:1056C0004A9B02C08150E1F74A9BFECF08955A9849
:1056D00080E28A95F1F75A9A0895FC013BE03A95E9
:1056E000F1F798E020E080E031E040E14A95F1F701
:1056F000880F4A9B02C08160232742E04A95F1F758
:10570000000040E14A95F1F7915079F790E19A95C0
:10571000F1F799B132E03A95F1F7000040E14A958E
:10572000F1F792FB992790F992272081920F9083AD
:105730000895A1E0B0E0EFE9FBE20C94272D198277
:105740008C017C01E60EF11C0E151F0541F481E071
:105750009981911180E02196E6E00C94432D0E94FE
:105760005F2BCE0101960E946D2BF80181938F0172
:10577000EBCF529A5A9A089552985A9AEA9AE9E6C1
:10578000F0E080818F7C808308956150770B91E0F9
:1057900001C0990F6A95EAF720E031E0911108C045
:1057A000222391F05A9A80E28A95F1F75A98089547
:1057B000492F482339F05A9A232740E24A95F1F7B6
:1057C0009695ECCF5A98F9CF5A98EDCFFF920F9358
:1057D0001F93CF93DF93EC018C01060F111DC017AF
:1057E000D10729F4CDB7DEB7E5E00C94442DF9904C
:1057F0000E94672B68E08F2D0E94C52BF0CF1F926F
:105800000F920FB60F9211240F931F932F933F9374
:105810004F935F936F937F938F939F93AF93BF93B8
:10582000EF93FF93CF93DF930F92CDB7DEB719823B
:105830000E945F2BCE0101960E946D2B082F0695CA
:1058400006950695282F22952570902F9570290F83
:10585000922F937026952695920F9827977089819D
:10586000982B09F05CC0053008F059C080E18A959A
:10587000F1F75A9A529A82E08A95F1F700C05A9845
:1058800088E0089F80011124D801A751BD4F1696CA
:10589000ED91FC9117973097A9F06091B704709142
:1058A000B80414962D913C911597260F371F119629
:1058B0008D919C911297680F791F13964C911397B5
:1058C0008C910995F801E751FD4F6381662351F0F2
:1058D0002091B7043091B80484819581820F931F81
:1058E0000E94E62B0E94672B80E18A95F1F75A9877
:1058F00052985A9A80E18A95F1F7F801E751FD4FE5
:105900006081662351F02091B7043091B804818101
:105910009281820F931F0E94992B0E945F2B0F9000
:10592000DF91CF91FF91EF91BF91AF919F918F91B7
:105930007F916F915F914F913F912F911F910F91A7
:105940000F900FBE0F901F9018950F931F93CF933A
:10595000DF93EC0105970CF04CC0F894529A5A98DA
:1059600085E08A95F1F700009C2F969595708C2F15
:105970008570980F892F83709695969523E0CC0FAC
:10598000DD1F2A95E1F7980F8E01092B0E94672BE6
:1059900000C068E0802F0E94C52B80E18A95F1F756
:1059A00052985A9A4A9B1EC087E090E04A991CC0C0
:1059B000FE01E751FD4F63816623F9F02091B704A2
:1059C0003091B80484819581820F931F0E94992B96
:1059D000811113C0529A5A9A7894DF91CF911F91F6
:1059E0000F91089500C0DECF019729F4529A5A9A78
:1059F000789480E0F2CF00C0D9CF0E945F2B80E284
:105A00008A95F1F75A98529A80E18A95F1F7C75131
:105A1000DD4F6881662351F02091B7043091B804BE
:105A200089819A81820F931F0E94E62B0E94672B27
:105A3000789481E0D2CF2F923F924F925F926F92F3
:105A40007F928F929F92AF92BF92CF92DF92EF920E
:105A5000FF920F931F93CF93DF93CDB7DEB7CA1B8F
:105A6000DB0B0FB6F894DEBF0FBECDBF09942A88BA
:105A7000398848885F846E847D848C849B84AA8462
:105A8000B984C884DF80EE80FD800C811B81AA81EF
:105A9000B981CE0FD11D0FB6F894DEBF0FBECDBFBA
:105AA000ED01089587FB082E062687FD819567FD89
:105AB00061950E948E2D0EF4919507FC81950895B5
:105AC000AA1BBB1B51E107C0AA1FBB1FA617B70724
:105AD00010F0A61BB70B881F991F5A95A9F7809540
